:020000040800F2
:1000000008100020D901000873080008B107000893
:100010006F08000881040008BF15000800000000F8
:100020000000000000000000000000000D130008A8
:10003000BB040008000000004D0D00087514000806
:10004000F3010008F3010008F3010008F3010008C0
:10005000F3010008F3010008F3010008F3010008B0
:10006000F3010008F3010008F3010008F3010008A0
:10007000F3010008F3010008F3010008F301000890
:10008000F3010008F3010008F3010008F301000880
:10009000F3010008F3010008F3010008F301000870
:1000A000F3010008F3010008F3010008F301000860
:1000B000F3010008F3010008F3010008F301000850
:1000C000F3010008F3010008F3010008F301000840
:1000D000F3010008D9140008F3010008F301000837
:1000E000BD040008F3010008F301000800F002F865
:1000F00000F063F80AA090E8000C82448344AAF15F
:100100000107DA4501D100F058F8AFF2090EBAE85C
:100110000F0013F0010F18BFFB1A43F0010318473B
:10012000981E0000B81E000010F8013B0A4413F0AE
:10013000030408BF10F8014B1D1108BF10F8015B44
:10014000641E05D010F8016B641E01F8016BF9D133
:10015000002D15D010F8014B03F00C030C2BA1EB74
:1001600004040ABF10F8013BA4EB8314A4EB03249E
:1001700005F1010314F8016B5B1E01F8016BF9D561
:10018000914238BF10F8013BD1D3704700230024BF
:1001900000250026103A28BF78C1FBD8520728BF97
:1001A00030C148BF0B607047642900F07F80002099
:1001B00070471FB51FBD10B510BD00F02EF91146D8
:1001C000FFF7F7FF01F0A6FA00F04CF903B4FFF7D0
:1001D000F2FF03BC01F03EFA094880470948004796
:1001E000FEE7FEE7FEE7FEE7FEE7FEE7FEE7FEE7E7
:1001F000FEE7FEE704480549054A064B7047000044
:1002000079140008ED000008080A002008100020FA
:10021000080C0020080C0020704700000FB41CB52B
:10022000074B06AA7B4469460090059800F0DDF86C
:100230000020694600F0ECF81CBC5DF814FB0000DF
:10024000E90100002DE9F0410E460446002020623D
:100250002046E168884730B3252805D0D4E901213C
:100260009047206A401CF2E7E16820460027884753
:10027000050018D0A5F14100192802D820354FF407
:1002800000673246294620462760FFF78DFF40B1C0
:10029000012804D0F61D26F007060836D8E7361DDB
:1002A000D6E72846DAE7206ABDE8F0812DE9F0417B
:1002B0000646002410687529314616A510D0AFF304
:1002C0000080002802DA404213A507E031688A075F
:1002D00001D512A502E0490704D511A5012401E0CA
:1002E000AFF3008000210A2206F1240709E0B0FBE9
:1002F000F2FCB0FBF2F302FB1C00303078541846DD
:10030000491C0028F3D123462A463046BDE8F04177
:1003100000F00CB8000000002D0000002B000000D1
:100320002000000070477047704770472DE9F04784
:100330000D4699469246044600F124080168880655
:1003400004D5E06921F01001216000E00120A842FD
:1003500001DD471B00E00027A1697A1902EB0900C3
:10036000081AA0612078C00602D42046AFF30080AE
:10037000002608E0D4E901211AF806009047206A17
:10038000401C761C20624E45F4DB2078C0060AD55E
:100390002046AFF3008006E0D4E9012130209047E9
:1003A000206A401C2062381EA7F10107F4DC07E038
:1003B000D4E9012118F805009047206A401C20620A
:1003C000281EA5F10105F3DC2046AFF3008020785C
:1003D000000602D50220BDE8F0870120FBE70000FF
:1003E00001694A1C02610878704700B58FB0CDE9F9
:1003F00001310021059105497944CDE903101146E9
:100400006846FFF71FFF0FB000BD0000E5FFFFFFCC
:100410000A6802F8010B0A607047754600F02CF874
:10042000AE4605006946534620F00700854618B0E1
:1004300020B5FFF7DFFEBDE820404FF000064FF08B
:1004400000074FF000084FF0000B21F00701AC4609
:10045000ACE8C009ACE8C009ACE8C009ACE8C00928
:100460008D46704710B50446AFF300802046BDE8C6
:100470001040FFF7ABBE000000487047A8090020FD
:1004800000BFFEE730B5002314E001F0800400F463
:10049000004584EA25242CB14FF6FF7404EA40009D
:1004A000504003E04FF6FF7404EA40004C06210E72
:1004B0005C1CE3B2082BE8DB30BD704710B54FF48D
:1004C000004000F011F828B1012003490870C00372
:1004D00000F004F810BD000032000020014908605F
:1004E0007047000014040140014600200022074B21
:1004F0001B6803EA0102054B14331B680B4013B160
:100500000AB1012000E00020704700000004014013
:10051000002123498279002A3AD00A4612680368EA
:100520009A430B461A600A1D126803689A430B1D12
:100530001A60027911440A6803681A430A60184A6B
:100540000832126803689A43154B08331A601A1D63
:10055000126803689A43124B0C331A604279102ACE
:100560000ED11A1F126803681A430D4B08331A6024
:100570001A1D126803681A43094B0C331A600DE008
:100580000749427911440A6803681A430A6005E082
:10059000027911440A6803689A430A6070470000B0
:1005A0000004014030B500228B071C0F0F2303FA13
:1005B00004F20B4B8C1053F824309343084C8D10ED
:1005C00044F8253023468C1053F824308C07240F30
:1005D00000FA04F42343024C8D1044F8253030BD5A
:1005E000080001402DE9F0410246002500260020C8
:1005F00000230024002791F803C00CF00F0591F8A8
:1006000003C00CF0100CBCF1000F03D091F802C035
:100610004CEA050591F800C0BCF1000F31D0146818
:1006200000202BE04FF0010C0CFA00F3B1F800C0F1
:100630000CEA03069E4220D183004FF00F0C0CFA07
:1006400003F7BC4305FA03FC4CEA040491F803C029
:10065000BCF1280F06D14FF0010C0CFA00FCC2F8D7
:1006600014C00AE091F803C0BCF1480F05D14FF067
:10067000010C0CFA00FCC2F810C0401C0828D1D3B1
:100680001460B1F800C0BCF1FF0F34DD54680020E5
:100690002EE000F1080C4FF0010808FA0CF3B1F855
:1006A00000C00CEA03069E4221D183004FF00F0CDC
:1006B0000CFA03F7BC4305FA03FC4CEA040491F876
:1006C00003C0BCF1280F05D100F1080C08FA0CF8A2
:1006D000C2F8148091F803C0BCF1480F07D100F1B3
:1006E000080C4FF0010808FA0CF8C2F81080401C02
:1006F0000828CED35460BDE8F0810000F0B50A466A
:10070000002300240021002500F00046B6F1004F30
:1007100002D11D4EF16901E01B4E7168C0F3034523
:1007200083B200F44016B6F5401F08D121F0706185
:10073000154E766826F07066134F7E6012E000F466
:100740008016B6F5801F06D1032606FA05F4A143EC
:1007500041F0706106E0460D360103FA06F6B1433A
:1007600041F0706122B1460D360103FA06F63143BD
:1007700000F00046B6F1004F02D1034EF16101E0F6
:10078000014E7160F0BD00000000014002460020F3
:1007900093680B400BB1012000E0002070474161DD
:1007A0007047016170470AB1016100E04161704723
:1007B00000BFFEE708B501211C2000F0C9FA4FF484
:1007C0004270ADF8000010208DF8030003208DF872
:1007D000020069460848FFF705FF4FF40050ADF8E6
:1007E000000010208DF8030003208DF802006946F8
:1007F0000248FFF7F7FE08BD000C01400010014061
:1008000010B500F02BFFFFF7D5FF00F0C5F800F0A2
:1008100069F817220021084600F064F91822002127
:10082000102000F05FF919220021202000F05AF971
:100830001A220021302000F055F91B22002140200F
:1008400000F050F91C220221002000F04BF91D227B
:100850000221102000F046F91E220221202000F083
:1008600041F91F220221302000F03CF910BD00BFE9
:10087000FEE7704770B5002100230F22C47804B34F
:10088000154C246804F4E064C4F5E064210AC1F165
:100890000403CA40447804FA03F1847814402143E5
:1008A00009010E4C0678A155047804F01F050124B7
:1008B000AC4005786D11AD0005F1E025C5F80041AB
:1008C00009E0047804F01F050124AC40044D0678CB
:1008D000761145F8264070BD0CED00E000E400E024
:1008E00080E100E070B5002418E004F1B0000021C0
:1008F00000F099F90021084600F095F90021102038
:1009000000F091F9002505E00121002000F08BF9AD
:10091000681CC5B2802DF7DB601CC4B2082CE4DB78
:1009200070BD000010B54FF480410948FFF739FF52
:100930004FF400410648FFF734FF4FF400410448EC
:10094000FFF72DFF4FF480410148FFF728FF10BD4E
:10095000000C014010B54FF480410748FFF721FF1C
:100960004FF400410448FFF71AFF4FF400410248DA
:10097000FFF717FF10BD0000000C014010B54FF449
:1009800080410448FFF70DFF4FF480410148FFF715
:1009900006FF10BD000C014008B50121092000F040
:1009A000D7F901214348FFF7A9FE4FF44040ADF8C5
:1009B000000010208DF8030003208DF80200694626
:1009C0003D48FFF70FFE4FF440413B48FFF7E9FE7B
:1009D0004FF4487000F064FE0021AE2000F023F9CF
:1009E0000021084600F01FF90021102000F01BF93B
:1009F0000021402000F017F90021B02000F013F989
:100A00000021812000F00FF90021FF2000F00BF9F8
:100A10000021A12000F007F90021A62000F003F931
:100A20000021A82000F0FFF800213F2000F0FBF893
:100A30000021C82000F0F7F80021D32000F0F3F8DF
:100A40000021084600F0EFF80021D52000F0EBF877
:100A50000021802000F0E7F80021D82000F0E3F822
:100A60000021052000F0DFF80021D92000F0DBF89C
:100A70000021F12000F0D7F80021DA2000F0D3F8AF
:100A80000021122000F0CFF80021DB2000F0CBF88D
:100A90000021302000F0C7F800218D2000F0C3F8BD
:100AA0000021142000F0BFF80021AF2000F0BBF8B7
:100AB00008BD000000023000000C014070B5044683
:100AC0000D4605F1B000002100F0ADF8102141EA1B
:100AD0001410002100F0A7F804F00F00002100F02E
:100AE000A2F870BD2DE9F04180460E46154600275C
:100AF00031464046FFF7E2FF00240AE0124A02EBCB
:100B00008511085D012100F08EF8781CC7B2601CC9
:100B1000C4B2102CF2DB701CC1B24046FFF7CEFF0E
:100B200000240CE06900491C074A02EB4111085DF2
:100B3000012100F078F8781CC7B2601CC4B2102CF8
:100B4000F0DBBDE8F08100003D0000202DE9F0471A
:100B500007460E469046994600250024A8F120003D
:100B6000C5B27F2F02DD0027B01CC6B2B9F1100F4D
:100B700024D131463846FFF7A1FF002408E004EBFA
:100B80000511194A505C012100F04DF8601CC4B2F7
:100B9000082CF4DB701CC1B23846FFF78FFF00242D
:100BA00009E004EB051108310F4A505C012100F007
:100BB0003AF8601CC4B2082CF3DB12E03146384628
:100BC000FFF77CFF00240AE005EB4501074A02EB32
:100BD0004101085D012100F026F8601CC4B2062C1A
:100BE000F2DBBDE8F0870000B81900089017000894
:100BF0002DE9F04105460E4614461F460EE02278C8
:100C00003B4631462846FFF7A1FF05F10800C5B273
:100C1000782D02DD0025B01CC6B2641C20780028A7
:100C2000EDD1BDE8F08170B504460D461DB1E0B2CE
:100C300000F04AF802E0E0B200F030F870BD0000C9
:100C40002DE9F04105462C464FF480411248FFF74C
:100C5000A6FD00261CE0274607F08007802F04D160
:100C600039020D48FFF79DFD04E04FF400410A48AA
:100C7000FFF795FD6006040E4FF480410648FFF72C
:100C800090FD4FF480410448FFF789FD701CC6B207
:100C9000082EE0DBBDE8F081000C014010B50446F1
:100CA000FFF740FE7820FFF7CBFFFFF767FE00203D
:100CB000FFF7C6FFFFF762FE2046FFF7C1FFFFF711
:100CC0005DFEFFF747FE10BD10B50446FFF72AFE94
:100CD0007820FFF7B5FFFFF751FE4020FFF7B0FF88
:100CE000FFF74CFE2046FFF7ABFFFFF747FEFFF78D
:100CF00031FE10BD10B54FF480611348FFF751FD70
:100D0000002400E0641C0A2CFCD34FF480610E48E0
:100D1000FFF745FD002400E0641C0A2CFCD34FF4CF
:100D200080610948FFF73DFD002400E0641CC82CE9
:100D3000FCD3302000F072FB002400E0641CB4F50A
:100D4000FA6FFBD310BD0000000C0140704700009B
:100D500029B1064A92690243044B9A6104E0034AAE
:100D600092698243014B9A61704700000010024073
:100D70000EB501210846FFF7EBFF28208DF8000093
:100D800000208DF801008DF8020001208DF803008D
:100D90006846FFF76FFD0F210020FFF703FC4FF4BB
:100DA0000040019000208DF808000C208DF809000B
:100DB00001208DF80A0001A8FFF7AAFB0EBD2DE95E
:100DC000F04306460F4614460025A846A946012CC6
:100DD00002D148F2050001E041F221008146012CD8
:100DE00002D14FF6FF7001E041F60F50804600251A
:100DF00007E0715D4A464046FFF744FB8046681CA9
:100E0000C5B2BD42F5DB012C02D14046BDE8F083FE
:100E10006FEA080080B2F9E710B500F0B9F93620A2
:100E200000F0FCFA10BD00002DE9F04100275A48FF
:100E30000078072829D2DFE800F00429354851A7B7
:100E4000390000F0E7F95548048855480588002026
:100E50005449087054490C70200A48708D70280A53
:100E6000C870012204215048FFF7A9FF064630123E
:100E70004D4908714E7108460078401CC1B24A487D
:100E800000F045FA01204449087081E000BF454860
:100E900000780028FBD000204249087002203E491B
:100EA000087075E006203C49087071E000F0CCF94C
:100EB000392000F0B3FA362000F0B0FA0A2000F032
:100EC000EFFB00203449087062E000F087F934201D
:100ED00000F0A4FA04203049087059E03148007845
:100EE000002850D000202F49087041212F4800F0E1
:100EF000D7F8002844D0342000F090FA2B4800782E
:100F00002A49497840EA0124284880782749C97845
:100F100040EA0125254840792449097940EA012021
:100F200023490880012204212048FFF748FF204977
:100F30000988884224D1642000F0B2FB00201D49BA
:100F40000860642000F0ACFB01201B49C1F8B4012B
:100F5000FFF7C8FC224619A11B48FFF75FF90C23D5
:100F6000194A01210820FFF743FE2A4617A1164817
:100F7000FFF754F90C23144A02210820FFF738FE2A
:100F800005200549087003E003200349087000BFED
:100F900000BFBDE8F08100000C000020020000202E
:100FA00004000020320000204008002080080020BB
:100FB0000A000020B4012242000022424D5F34208A
:100FC0002020203A25640000C00800204D5F362014
:100FD0002020203A256400002DE9F04105460E4608
:100FE00017464FF480610F48FFF7D9FB002401E05A
:100FF000601CC4B2642CFBDB45F0C005284600F041
:101000005DF9002404E000F03BF93055601CC4B2E7
:10101000BC42F8DB4FF480610248FFF7C2FBBDE839
:10102000F0810000000C014070B504464FF480616F
:101030000B48FFF7B4FB002501E0681CC5B2642D26
:10104000FBDB44F08004204600F038F900F018F98A
:1010500006464FF480610248FFF7A3FB304670BD9F
:10106000000C014070B504464FF480610B48FFF757
:1010700096FB002501E0681CC5B2642DFBDB44F043
:10108000C004204600F01AF900F0FAF806464FF4C2
:1010900080610248FFF785FB304670BD000C0140BF
:1010A000F8B505460E46362000F0B8F93B20FFF7AC
:1010B000D9FF044604F07F0000B33F20FFF7B4FFE0
:1010C0000446B44215DA2C702246691C3F20FFF713
:1010D00083FF022269463F20FFF77EFF9DF8000054
:1010E000094908703A2000F099F99DF80100C009FB
:1010F000F8BD3A2000F092F90020F9E73A2000F01C
:101100008DF90020F4E700003C00002008B5012123
:101110000C20FFF71DFE4FF4E050ADF8000010204A
:101120008DF8030003208DF8020069461648FFF78A
:1011300059FA4FF40760ADF8000010208DF8030055
:1011400003208DF8020069460F48FFF74BFA4FF471
:101150000050ADF8000048208DF8030069460A48A9
:10116000FFF740FA4FF400510748FFF71AFB4FF41E
:101170000040ADF8000048208DF8030069460348A0
:10118000FFF730FA08BD0000000C014000080140E4
:1011900010B5FFF7AFFD00F0A9FA362000F03EF9D8
:1011A0003A2000F03BF93B2000F038F9332000F002
:1011B00035F9082207493E2000F004FA064908786C
:1011C000FFF732FF04494978884201D000BFFEE7AB
:1011D00010BD0000330000207417000810B5012274
:1011E00040210A48FFF7DFFA012220210748FFF7D4
:1011F000DAFA00224FF400610548FFF7D4FA012221
:1012000010210248FFF7CFFA10BD0000000C01408A
:101210000008014010B5002240210948FFF7C3FA39
:10122000012220210648FFF7BEFA0122D10205481B
:10123000FFF7B9FA012210210148FFF7B4FA10BDF7
:10124000000C01400008014010B5002240210A486E
:10125000FFF7A9FA002220210748FFF7A4FA00228D
:101260004FF400610548FFF79EFA01221021024861
:10127000FFF799FA10BD0000000C01400008014082
:1012800070B5002513E04FF480510B48FFF789FA41
:101290006006040E4FF400510748FFF777FA044345
:1012A0004FF480510448FFF77AFA681CC5B2082D44
:1012B000E9DB204670BD0000000C014070B504461B
:1012C00000251CE004F0800028B14FF400610E48B6
:1012D000FFF767FA04E04FF400610B48FFF75FFA8D
:1012E00000BF4FF480510848FFF75BFA6006040E18
:1012F0004FF480510448FFF752FA681CC5B2082D1C
:10130000E0DB012070BD0000000C0140704770B5AB
:1013100004460D46362000F081F83B2000F07EF8B0
:101320002A4621463F2000F04DF9352000F076F89E
:10133000012070BD10B500F001F810BD0CB5002003
:10134000019000903348006840F4803031490860D3
:1013500000BF3048006800F4003000900198401C45
:101360000190009818B90198B0F5A06FF1D1294803
:10137000006800F4003010B10120009001E000206E
:1013800000900098012843D12348006840F01000E5
:10139000214908600846006820F0030008600846FC
:1013A000006840F0020008601A4840681949486027
:1013B0000846406848600846406840F480604860DD
:1013C0000846406820F47C1048600846406840F4B5
:1013D000E81048600846006840F08070086000BF70
:1013E0000C48006800F000700028F9D009484068F7
:1013F00020F00300074948600846406840F00200BA
:10140000486000BF0348406800F00C000828F9D18C
:101410000CBD0000001002400020024070B50546DF
:101420004FF480610848FFF7BAF9002401E0601C1E
:10143000C4B2642CFBDB2846FFF740FF4FF4806109
:101440000148FFF7AEF970BD000C0140042808D137
:101450004FF0E021096941F004014FF0E0221161F1
:1014600007E04FF0E021096921F004014FF0E0228C
:10147000116170477047000010B51348006840F0D4
:1014800001001149086008464068104908400E49AB
:101490004860084600680E4908400B490860084645
:1014A000006820F4802008600846406820F4FE00B0
:1014B00048604FF41F008860FFF73CFF4FF000606A
:1014C0000449086010BD0000001002400000FFF851
:1014D000FFFFF6FE08ED00E010B540F225511D4873
:1014E00000F03EF810B31B4800F064F8C4B21A488C
:1014F000008800F40040C8B91748008800F4804014
:1015000060B10A2C03D000201349088020E0124863
:10151000008840F400401049088019E00D2C06D1E5
:101520000D48008840F480400B49088010E00A48CC
:101530000088C0F30D0009490C5407480088401C7E
:101540000549088008460088C72801DD002008807A
:1015500010BD00000038014030000020DE080020EF
:1015600070B50246002400230025002040F66A16CC
:10157000B14200D100BFC1F3421501F01F030126A3
:1015800006FA03F3012D02D19689334006E0022DBD
:1015900002D1168A334001E0968A33400C120126AC
:1015A00006FA04F41688344013B10CB1012000E0AF
:1015B000002070BD01468888C0F30800704700BF56
:1015C000FEE700002DE9F04105460E4617464FF4B0
:1015D00080611048FFF7E3F8002401E0601CC4B20A
:1015E000642CFBDB25F0800545F040052846FFF71D
:1015F00065FE002404E0305DFFF760FE601CC4B2AD
:10160000BC42F8DB4FF480610248FFF7CAF8BDE83E
:10161000F0810000000C014070B504460D464FF407
:1016200080610B48FFF7BBF8002601E0701CC6B2D2
:10163000642EFBDB24F080042046FFF73FFE2846A3
:10164000FFF73CFE4FF480610148FFF7AAF870BD38
:10165000000C0140014600BF7047000010B56FF05C
:101660000400FFF7F3FE0A4800680A49B0FBF1F0F6
:10167000094908700846007800EB4001C1EBC01032
:101680004FF6FF7101EAC0000449088010BD000058
:101690001400002000127A00280000202A000020F8
:1016A0000146114A12884A434FF0E0235A61002252
:1016B0009A611A46126942F001021A6100BF4FF0A6
:1016C000E022106900F001021AB100F48032002A11
:1016D000F5D04FF0E022126922F001024FF0E02332
:1016E0001A6100229A6170472A00002010B5002478
:1016F0000AE0074A02EB44025178054A12F8140046
:10170000FFF78AFF601C84B20E2CF2D310BD0000DC
:1017100074170008FFF774F8FFF7F8FCFFF77CFB7D
:10172000FFF726FB01200E4908600E49C1F8B401FD
:101730004FF49670FFF7B4FF00200B49C1F88C01FD
:101740000A480078012803D100200949087002E006
:1017500003200749087001E0FFF766FBFCE7000083
:101760008C812142000022420080214200000020A2
:101770000C000020020608050B080D5D0E930FB14A
:101780001086118312031544181819162500261106
:101790000000000000000000002F00000000070013
:1017A000070000147F147F1400242A7F2A1200628D
:1017B0006408132300364955225000000503000039
:1017C00000001C224100000041221C000014083EC1
:1017D00008140008083E0808000000A06000000887
:1017E00008080808000060600000002010080402DB
:1017F000003E5149453E0000427F40000042615199
:101800004946002141454B31001814127F10002732
:1018100045454539003C4A494930000171090503F5
:1018200000364949493600064949291E0000363626
:101830000000000056360000000814224100001489
:101840001414141400004122140800020151090666
:1018500000324959513E007C1211127C007F4949E7
:101860004936003E41414122007F4141221C007F18
:1018700049494941007F09090901003E4149497A26
:10188000007F0808087F0000417F410000204041A0
:101890003F01007F08142241007F40404040007F0C
:1018A000020C027F007F0408107F003E4141413E50
:1018B000007F09090906003E4151215E007F091998
:1018C00029460046494949310001017F0101003F95
:1018D0004040403F001F2040201F003F4038403F15
:1018E0000063140814630007087008070061514979
:1018F000454300007F41410000552A552A5500000C
:1019000041417F0000040201020400404040404089
:10191000000001020400002054545478007F484421
:10192000443800384444442000384444487F003858
:101930005454541800087E0901020018A4A4A47C81
:10194000007F080404780000447D4000004080844B
:101950007D00007F102844000000417F4000007C93
:1019600004180478007C080404780038444444389F
:1019700000FC242424180018242418FC007C0804EB
:10198000040800485454542000043F444020003CC4
:101990004040207C001C2040201C003C4030403C4B
:1019A000004428102844001CA0A0A07C00446454DB
:1019B0004C4414141414141400000000000000001F
:1019C0000000000000000000000000F8000000001F
:1019D000000000333000000000100C06100C060060
:1019E000000000000000000040C07840C0784000C7
:1019F000043F04043F040400007088FC0830000029
:101A0000001820FF211E0000F008F000E018000080
:101A100000211C031E211E0000F008887000000039
:101A20001E2123241927211010160E00000000008B
:101A30000000000000000000000000E018040200A8
:101A4000000000071820400000020418E000000019
:101A50000040201807000000404080F08040400017
:101A60000202010F01020200000000F0000000006D
:101A70000101011F01010100000000000000000041
:101A800080B07000000000000000000000000000B6
:101A9000000101010101010100000000000000003F
:101AA00000303000000000000000000080601804DA
:101AB000006018060100000000E010080810E000B7
:101AC000000F102020100F00001010F80000000080
:101AD0000020203F202000000070080808887000C7
:101AE0000030282422213000003008888848300047
:101AF0000018202020110E000000C02010F8000067
:101B000000070424243F240000F8088888080800FF
:101B10000019212020110E0000E010888818000014
:101B2000000F112020110E0000380808C8380800E6
:101B30000000003F00000000007088080888700066
:101B4000001C222121221C0000E010080810E000E7
:101B50000000312222110F00000000C0C000000070
:101B60000000003030000000000000800000000095
:101B7000000080600000000000008040201008008D
:101B80000001020408102000404040404040400056
:101B90000404040404040400000810204080000031
:101BA0000020100804020100007048080808F00036
:101BB0000000003036010000C030C828E810E00006
:101BC0000718272423140B000000C038E000000091
:101BD000203C23020227382008F8888888700000FB
:101BE000203F202020110E00C030080808083800CF
:101BF000071820202010080008F808080810E00046
:101C0000203F202020100F0008F88888E8081000E6
:101C1000203F20202320180008F88888E8081000BA
:101C2000203F200003000000C030080808380000F2
:101C300007182020221E020008F808000008F808F3
:101C4000203F210101213F20000808F8080800007A
:101C50000020203F2020000000000808F8080800AD
:101C6000C08080807F00000008F888C02818080025
:101C7000203F20012638200008F80800000000005E
:101C8000203F20202020300008F8F800F8F8080055
:101C9000203F003F003F200008F830C00008F8084F
:101CA000203F200007183F00E01008080810E0005F
:101CB0000F10202020100F0008F808080808F00076
:101CC000203F210101010000E01008080810E00099
:101CD0000F18242438504F0008F88888888870002E
:101CE000203F2000030C30200070880808083800CE
:101CF0000038202121221C00180808F808081800C4
:101D00000000203F2000000008F808000008F80844
:101D1000001F202020201F000878880000C83808F5
:101D2000000007380E010000F80800F80008F8006D
:101D3000033C0700073C0300081868808068180807
:101D400020302C03032C30200838C800C838080085
:101D50000000203F2000000010080808C8380800D4
:101D60002038262120201800000000FE0202020078
:101D70000000007F40404000000C30C00000000028
:101D8000000000010638C00000020202FE00000050
:101D9000004040407F0000000000040202020400F6
:101DA0000000000000000000000000000000000033
:101DB000808080808080808000020204000000001B
:101DC0000000000000000000000080808080000013
:101DD0000019242222223F2008F800808000000001
:101DE000003F112020110E000000008080800000C4
:101DF000000E112020201100000000808088F800D3
:101E0000000E112020103F20000080808080000004
:101E1000001F222222221300008080F08888881868
:101E20000020203F20200000000080808080800073
:101E3000006B94949493600008F800808080000008
:101E4000203F210000203F200080989800000000E3
:101E50000020203F20200000000000809898000013
:101E600000C08080807F000008F800008080800033
:101E7000203F24022D302000000808F80000000058
:101E80000020203F20200000808080808080800013
:101E9000203F20003F20003F8080008080800000A5
:101EA000203F210000203F20000080808080000033
:101EB000001F202020201F00808000808000000064
:101EC00080FFA12020110E00000000808080800093
:101ED000000E112020A0FF80808080008080800084
:101EE00020203F21200001000000808080808000B1
:101EF0000033242424241900008080E08080000026
:101F00000000001F20200000808000000080800072
:101F1000001F202020103F208080800000808080D3
:101F200000010E3008060100808000800080808063
:101F30000F300C030C300F00008080008080800088
:101F40000020312E0E3120008080800000808080B3
:101F500080818E7018060100008080808080800063
:101F60000021302C2221300000000000807C020281
:101F700000000000003F404000000000FF000000A3
:101F800000000000FF0000000002027C8000000052
:101F90000040403F0000000000060101020204046E
:101FA0000000000000000000000810204080000039
:101FB0000020100804020100D81F000800000020C3
:101FC0004008000028010008F8220008400800200E
:101FD000C80700008C010008021200016004A24A38
:101FE000040B900901020304060708091E72FF286A
:101FF00020091060028C0000FE92010211FE4810C0
:102000000A04047E01407E42427E02F004427E4089
:10201000683140413F011740000B104448507F4059
:10202000407F50484440200B0000FC242424FC2521
:10203000262408F204C8F01040308F80844C5525C7
:102040002525554C80808020400620104C475401A7
:1020500000051AD4040400010005110F3040F0807F
:102060001004FE02820122FA05F782024820058050
:10207000601F400111C10404104458400010074083
:1020800040424458C01F000511C050484620100768
:10209000808040201807C9223F460211787F040D36
:1020A00010424242FE0042A29E82A2C2BEC8400B23
:1020B000806F080828CF00002FC808E5A0040F1083
:1020C00002E222223E00809E9292F292929E200490
:1020D000104F004382423E40474444447F444454AE
:1020E000E780800400000801091188C21001011076
:1020F0003E040D1024236AAA2AAA6A2A2A2AEA027E
:102100007F1008001011151515FF04171110C006D7
:1021100011F8212760F85F080611FF402010080021
:102120002A01ED34040402017F051180140604E441
:102130005C44C440040611F0909F9090400410113C
:10214000013F10107F201806914C300F30488481D9
:10215000000C1202F2121212F2020202FE02C11965
:10216000780C09120404040F0040807FA8030810B3
:1021700011807000FF10289827C43C907F901214A3
:10218000800C0E5018070898640328C621C0112639
:10219000C80003254015A5040412D0FFD09F354088
:1021A00015590008110B08FF080B0408213E001FF9
:1021B0000336FF5F01161E3D3F03011422100B1072
:1021C00010FF100082BAEABA83040A11825E0C0F73
:1021D0008F180F04484A2AFF8A4A1A2F5A8A888081
:1021E000041404040AE41F21010E150877042005D5
:1021F0000708102001061410961E389B031638E8B5
:102200000915C02DE2041A08C061280D107E031CB8
:102210000589EA188867051AFC660A11FC9F2C06D6
:102220000100FF018684040C05124080403FA0039A
:102230000C0E10F01F10F00040E05847405060C0F6
:1022400000044C062215081621A7040E1242E105CF
:102250000D3D800310050000F888011A08600C0588
:1022600012090AC80880050C0D120010201F8040BA
:102270002116182641F87E0412F804294711CB0DC7
:10228000114004040A1430101F088848300E010061
:102290001C074042CC0000443E061E7F4606091340
:1022A00020167FBA2D81040F125595C1030C0F1112
:1022B0002424A4FE232200E22C203F2028E61E0531
:1022C0000C0E140601FF010600FF09090949897F68
:1022D0007F032FF810BD051DBF050D1281031DBF23
:1022E000040C0B119F854424140F1424448480048F
:0822F000B3C0C005013101007B
:04000005080001D915
:00000001FF
