:020000040800F2
:10000000E0100020850200083F2A000811230008A4
:100010003B2A0008151D0008253E000800000000CE
:100020000000000000000000000000002D3A000861
:100030004F1D000800000000F5320008953B000845
:100040009F0200089F0200089F0200089F0200080C
:100050009F0200089F0200089F0200089F020008FC
:100060009F0200089F0200089F0200089F020008EC
:100070009F0200089F0200089F0200089F020008DC
:100080009F0200089F0200089F0200089F020008CC
:100090009F0200089F0200089F0200089F020008BC
:1000A0009F0200089F0200089F0200089F020008AC
:1000B0009F0200089F0200089F0200089F0200089C
:1000C0009F0200089F0200089F0200089F0200088C
:1000D0009F020008F93B0008153C00089F02000839
:1000E0001D2000089F0200089F02000800F002F88F
:1000F00000F0B8F80AA090E8000C82448344AAF10A
:100100000107DA4501D100F0ADF8AFF2090EBAE807
:100110000F0013F0010F18BFFB1A43F0010318473B
:10012000744A0000944A000010F8013B0A4413F09E
:10013000030408BF10F8014B1D1108BF10F8015B44
:10014000641E05D010F8016B641E01F8016BF9D133
:10015000002D15D010F8014B03F00C030C2BA1EB74
:1001600004040ABF10F8013BA4EB8314A4EB03249E
:1001700005F1010314F8016B5B1E01F8016BF9D561
:10018000914238BF10F8013BD1D3704700230024BF
:1001900000250026103A28BF78C1FBD8520728BF97
:1001A00030C148BF0B6070476E2900F02D84702964
:1001B00000F08D85662904F05D80652904F05A8081
:1001C000672904F057806129AFF3008003681B0A98
:1001D00028BF41F08001692900F02481642900F0E2
:1001E0002181752900F01E816F2900F01B85782977
:1001F00000F05985E92900F0B584E42900F0B284C3
:10020000F52900F0AF84EF2900F01885F82900F0F7
:1002100058850368DB0928BF41F08001632900F09D
:100220003684732900F03B84E32901F00F80F32921
:1002300001F01480002070471FB59DE8030000F016
:100240001BFB01F05DF804000020002103F0E6FF35
:10025000401C60600020002103F0F6FFE0601FBD3D
:1002600010B510BD01F026F81146FFF7E5FF03F0C9
:1002700087FF01F0F7F803B4FFF7F2FF03BC01F0CA
:1002800027F900000948804709480047FEE7FEE7D4
:10029000FEE7FEE7FEE7FEE7FEE7FEE7FEE7FEE736
:1002A00004480549054A064B70470000993B000881
:1002B000ED000008E00A0020E0100020E00C002023
:1002C000E00C002070B5064600F0BAFA056806F1A9
:1002D0000B0020F00704B4429CBF002070BD2B46E9
:1002E0006A68BAB11068A04210D304F108018842CC
:1002F0003CBF5068586007D35168101941601168BD
:10030000091B016058601460101D70BD13465268CF
:10031000002AE7D12146284600F09AFA0028DED1CB
:1003200070BD70B50446051F00F08AFA0068002C05
:1003300014BF446870BD002C18BFAC423CBF2046BF
:100340006468F8D301680A18AA4218BF456003D14F
:100350002A6805461144016028684119A1421CBF62
:100360006C6070BD6168696021680844286070BD78
:100370007CB51D4616460C00009001D02044401E5E
:10038000074B7B442A4669460190304600F055FBF6
:1003900005461CB10020694600F062FB28467CBD82
:1003A000E50600000FB41CB5084B06AA7B4469465D
:1003B0000090059800F041FB04460020694600F0DB
:1003C0004FFB20461CBC5DF814FB0000B10600008A
:1003D00070B50C460546012A05D02878800600D560
:1003E000EA69002302E0012305E05B1C934202D28C
:1003F000E05C0028F9D1A869E618C01AA861286A4B
:1004000018442862284600F06DFA04E0D5E901217D
:1004100014F8010B9047B442F8D3284600F078FA5C
:1004200070BD00002DE9F0410646002410687529D2
:10043000314616A510D000F07CFA002802DA4042BE
:1004400013A507E031688A0701D512A502E0490724
:1004500004D511A5012401E000F074FA00210A225C
:1004600006F1240709E0B0FBF2FCB0FBF2F302FB5B
:100470001C00303078541846491C0028F3D123461C
:100480002A463046BDE8F04100F065BA00000000A1
:100490002D0000002B000000200000002DE9F05F7F
:1004A000894604464FF0000ADFF874B1FB44C0F8F7
:1004B00020A02046E1688847002874D0252806D06F
:1004C000D4E901219047206A401C2062F1E7002610
:1004D0005F462046E16888472028054607DB312D26
:1004E00005D2781910F8200C08B10643F1E7B007DF
:1004F00001D526F00406C4F81CA00027C4F818A0F3
:100500002A2D09D0284603F0D7FD38B304EB87081D
:10051000303DC8F8185019E059F8041B204604EB88
:1005200087029161E1688847012F054618D1E0698B
:10053000002820DA26F020061DE0D8F8180000EB8D
:10054000800005EB40003038C8F818002046E1680C
:100550008847054603F0B0FD0028EED1012F0AD0F0
:100560002E2D08D12046E16888477F1C0546022FC2
:1005700046F02006C4DBA069002803DA404246F0BA
:100580000106A061F00701D026F010066C2D0BD0FB
:10059000682D09D04C2D39D06A2D35D0742D35D029
:1005A0007A2D33D016E038E0E1682F4620468847A0
:1005B000B842054609D16C2F26D04FF48060E1681F
:1005C000064320468847054604E06C2F1AD04FF4B6
:1005D000807006430DB3A5F14100192802D82035DB
:1005E00046F400664A462946204626604E46FFF7F6
:1005F000DBFD80B101280BD0F61D26F0070000F1CD
:10060000080956E74020E4E78020D8E70020D6E735
:1006100006F104094DE7284652E7206ABDE8F09F3D
:100620000C460000401ECAB210F8011F8A4202D0D8
:100630000029F9D10020704710B5431E13F8014F6F
:10064000002CFBD105E011F8014B002C03F8014B05
:1006500003D0521EF7D20021197010BD30B50546E7
:100660000B462A4613F8014B12F8010B08B1A042C1
:10067000F8D01CB1002802D06D1CF1E7284630BD2F
:1006800040EA0103024630B59B0710D14FF0013418
:1006900000E008C208C91D1B9D4315EAC41FF8D01D
:1006A00013F0FF0102F8011B0DD01B0AF8E711F847
:1006B000013B002B02F8013B05D011F8013B002B58
:1006C00002F8013BF3D130BD10B5431C02E010F835
:1006D000011B71B18107FAD14FF0013202C88C1AA7
:1006E0008C4314EAC211F9D0C01A0A0603D0C01E06
:1006F00010BDC01A10BD0A0401D0801E10BD090231
:10070000FCD0401E10BD421E12F8013F002BFBD151
:1007100011F8013B002B02F8013BF9D17047032A85
:1007200040F2308010F0030C00F0158011F8013B0E
:10073000BCF1020F624498BF11F801CB00F8013BF5
:1007400038BF11F8013BA2F1040298BF00F801CBB9
:1007500038BF00F8013B11F0030300F0C382083AF0
:10076000C0F0088051F8043B083A51F804CBA0E8E7
:100770000810F5E7121D5CBF51F8043B40F8043B3C
:10078000AFF30080D20724BF11F8013B11F801CB71
:1007900048BF11F8012B24BF00F8013B00F801CB42
:1007A00048BF00F8012B70474FF000020429C0F049
:1007B000128010F0030C00F01B80CCF1040CBCF193
:1007C000020F18BF00F8012BA8BF20F8022BA1EBE5
:1007D0000C0100F00DB85FEAC17C24BF00F8012BCA
:1007E00000F8012B48BF00F8012B70474FF00002C2
:1007F00000B5134694469646203922BFA0E80C5017
:10080000A0E80C50B1F12001BFF4F7AF090728BFF1
:10081000A0E80C5048BF0CC05DF804EB890028BF6D
:1008200040F8042B08BF704748BF20F8022B11F096
:10083000804F18BF00F8012B704770477047704712
:1008400000487047840A002070477047704770471F
:1008500038B504460A4600206946AFF300800028F8
:1008600008BF38BD02460099204600F079FA012001
:1008700038BD012000F016BDF8B5AFF30080054685
:1008800000200C46102000BF0646A819A0420DD932
:10089000324669460020AFF30080070008BF00F031
:1008A00001FD0098A04218BF0546C419FFF7C8FF14
:1008B00005600746F01D20F007004619284600F0A5
:1008C0000AF8B44208BFF8BDA21B31463868BDE83B
:1008D000F84000F045BA00210160C0E901107047FE
:1008E0001020704770B5044685690068C10601D5BF
:1008F000302600E02026C00707D070BDD4E90121D2
:1009000030469047206A401C20626D1EF6D570BDAF
:1009100070B5044685690078C00707D170BDD4E979
:10092000012120209047206A401C20626D1EF6D5D0
:1009300070BD09684A0501D540B27047C905FCD5AC
:1009400000B2704709684A0501D5C0B27047C905B1
:10095000FCD580B270472DE9F0470D469946924686
:10096000044600F124080168880604D5E06921F0F6
:100970001001216000E00120A84201DD471B00E0DA
:100980000027A1697A1902EB0900081AA0612078F2
:10099000C00602D42046FFF7A5FF002608E0D4E9F0
:1009A00001211AF806009047206A401C761C20623C
:1009B0004E45F4DB2078C0060AD52046FFF792FFAB
:1009C00006E0D4E9012130209047206A401C2062D3
:1009D000381EA7F10107F4DC07E0D4E9012118F87B
:1009E00005009047206A401C2062281EA5F10105E1
:1009F000F3DC2046FFF78CFF2078000602D50220AA
:100A0000BDE8F0870120FBE711680268006A530522
:100A100001D508700AE0D30501D5088006E0130669
:100A200003D5C217C1E9000200E008600120704749
:100A300001694A1C02610878704700B58FB0CDE9A2
:100A400001310021059105497944CDE90310114692
:100A50006846FFF723FD0FB000BD0000E5FFFFFF74
:100A60000A6802F8010B0A607047D1E900239A4234
:100A700002D2531C0B601070704710B5436913B15C
:100A8000AFF3008001E0FFF7A3FC012010BD127856
:100A900000F124010A7000224A700122EDE711687A
:100AA0004FF0FF32E9E700002DE9FF5F15468A4667
:100AB0000446DFF8AC80F8440027D8E900103E4631
:100AC000CDE9001010E03AF816106A4602A800F0CE
:100AD000C9FB411C07D02178890603D5E269391882
:100AE00091420DD80744761C2078800602D5E06933
:100AF000B84205DDAE42E6DB3AF816000028E2D146
:100B0000A069C01BA0612046FFF7ECFED8E90010E9
:100B1000CDE90010002017E03AF818106A4602A844
:100B200000F0A0FBB0F1FF3F81460BD000250DF196
:100B3000080B05E0D4E901211BF8050090476D1C66
:100B40004D45F7D308F10100B0428046E4DB206A4E
:100B5000384420622046FFF7DBFEBDE8FF9F00001F
:100B6000164000002DE9F0418046D21D22F0070218
:100B70000025D2E90002F52915A614D0011E72F154
:100B8000000106DA0023D0EB030063EB020211A69A
:100B900008E0D8F800108B0701D50FA602E049073E
:100BA00001D50EA601251146002408F1240704E012
:100BB00000F0F0F830323A55641C50EA0102F7D1E7
:100BC0002B46324621464046BDE8F041FFF7C3BE02
:100BD000000000002D0000002B000000200000009D
:100BE00030B4002100F1240408E002F00705D20827
:100BF000303542EA4372DB086554491C52EA03056A
:100C0000F3D10468002310A2250708D504F02004BE
:100C10000C4304D0C46901230CA2641EC46130BC1F
:100C2000FFF799BE10B5044621461068FFF78AFE0B
:100C300002462046BDE810400023D1E7D21D22F035
:100C40000701D1E90023CBE70000000030000000DD
:100C5000F0B40D460188090502D5214C7C4402E020
:100C60001F4C7C440E34002100F1240608E002F001
:100C70000F071209E75D42EA03721B097754491C0A
:100C800052EA0307F3D102780023120704D5702D2E
:100C900006D009B1022311342246F0BCFFF75BBE37
:100CA00001231034F8E770B504460D46214610685C
:100CB000FFF748FE024629462046BDE87040002363
:100CC000C6E7D21D22F00703D3E90023C0E703687B
:100CD000126843F0200303600823C3610023B7E7D1
:100CE000783E000010B5203AC0F00B80B1E81850F3
:100CF000203AA0E81850B1E81850A0E81850BFF406
:100D0000F5AF5FEA027C24BFB1E81850A0E81850A4
:100D100044BF18C918C0BDE810405FEA827C24BFF8
:100D200051F8043B40F8043B08BF7047D20728BF86
:100D300031F8023B48BF11F8012B28BF20F8023BD5
:100D400048BF00F8012B7047004870477C0A00201C
:100D500010B500F0D5FA001D10BD00BFC134000071
:100D6000034640688C46002818BF88423CBF0346B3
:100D70004068F8D318681844884207D00CF1030083
:100D800020F00700001D411A521A0146081D0A6092
:100D9000FFF7C7BA30B5B0F10A024FEA900E71F111
:100DA00000034EEA817EB0EB0E0061EB91014FEA49
:100DB000101E4EEA017E10EB0E0041EB11114FEABE
:100DC000102E4EEA016E10EB0E0041EB11214FEA9E
:100DD000104E4EEA014E10EB0E0041EB114140184F
:100DE00041F100014FEAD00040EA41704FEAD101E1
:100DF00010EB80054FEA810444EA907444EB01044F
:100E00006D1944EB0404521BA3414FF0000348BF8B
:100E10000A3200D530BD401C41F1000130BD7047A1
:100E20002DE9FF4F0C461E464FF0FF378BB0D2E93D
:100E30000001DDF860800A908A46C1F30A5505B9C1
:100E40003D46002108464FF00000BAF1000F00F4C3
:100E5000400005DA00EB80004FF4400101EA500049
:100E60004FEA9059B9F1010F00DDB9460A9850EAEE
:100E70004A000ED044F61050A5F2FF3545432F141A
:100E8000B8F1000F1ED07542291E1EDDC9F1000207
:100E90001CE0B8F1010F4FF0000001D0302103E059
:100EA000F24305E02154401CB042FBDB30460022F7
:100EB000002121540B99C1F80880C1E900200FB02E
:100EC000BDE8F08FBD1B6D1CDEE74A4600DA6942C3
:100ED00006A800F059FA06AB93E8070003AB83E8D5
:100EE000070050460A9900F05AFB8DE80700A0F56C
:100EF00000501F3800900398002D09DD42F21F01B9
:100F00004A46084403A90390684600F0B9FD08E08A
:100F1000A0F500504A461F3803A90390684600F028
:100F2000C3FD8DE807000004000C03D04FF0FF3034
:100F3000410800E01046B8F1000F03D000220092F3
:100F400015461EE0751E05D4FFF724FF30326255AA
:100F50006D1EF9D5B3460122084302D000227F1C42
:100F600004E02078302801D100227F1E002A099752
:100F700086D01DE0112D07DAFFF70CFF30326255E5
:100F80006D1C50EA0102F5D1084302D00098C8B1A7
:100F90000EE00021681E05E0235C625C635422546D
:100FA000401E491C8142F7DBAB46A81B401E09903E
:100FB000002004F80B000B98099AC0F80880C0E9DB
:100FC000002B7CE711264FF0000859E72DE9F04F80
:100FD00088460446D21D22F0070191B0D1E90001F4
:100FE000CDE90A0103F054F802460B98C00F01D076
:100FF0002D2007E02068810701D52B2002E0202169
:1010000001EAC000032A099001D0072A05DB034644
:101010004146204600F078F90BE12078800601D5A2
:10102000E06900E00620B8F1650F814606D0B8F10E
:10103000660F18D0B8F1670F70D131E00020B9F118
:10104000110F009001DB112301E009F101030AAA4D
:1010500001A90CA8FFF7E4FEDDE90C70002609F1F8
:101060000105834647E001204B4600904FF00047C2
:101070000AAA01A90CA8FFF7D3FEDDE90DB00C996F
:101080005D46002610B909F101000D18B9EB050005
:1010900003D4C0F1FF3609F10105A5EB09002BE0EF
:1010A000B9F1010F01DA4FF001090020B9F1110F78
:1010B0000090484601DD112300E003460AAA01A979
:1010C0000CA8FFF7ADFEDDE90C704D460026834607
:1010D000207800070AD4AB4500DA5D4601A8012D4F
:1010E00004DD411911F8011C302907D04F4502DAFF
:1010F00017F1040F04DA012082460FE06D1EEEE7BF
:10110000002F02DCED1B3E4403E0781CA84200DD0A
:101110007D1CB81B00F1010A4FF000472078000742
:1011200003D4AA4501DB4FF0FF3A0021B7F1004F8D
:101130000DF143088DF8431024D002202B23002FFB
:1011400001DA7F422D230A21021EA0F1010000DCFA
:101150005FB197FBF1FC97FBF1F201FB1C7C17469A
:101160000CF1300C08F801CDEEE7A8F10100037096
:101170002188090501D5452100E06521A0F101087C
:1011800000F8011C09980FA9A1EB0807FF1D00B189
:101190000120411901EBEA70A1693844081A401E88
:1011A000A0612078C00602D42046FFF79BFB099877
:1011B00028B1D4E901219047206A401C20622078A0
:1011C000C00622D52046FFF78DFB1EE0002E04DB73
:1011D000B34502DD01A8805D00E03020D4E90121A3
:1011E0009047206A401C2062761CAAF101005FEA49
:1011F000000A0AD100F084F8C0680168405CD4E9B4
:1012000001219047206A401C2062281EA5F101059B
:10121000DCDC07E0D4E9012118F8010B9047206AD3
:10122000401C2062381EA7F10107F3DC2046FFF7BF
:101230006FFB032011B043E610B5436913B1AFF360
:10124000008001E0FFF730FC012010BD128800F1A2
:10125000240182840022C2840122EDE711684FF04C
:10126000FF32E9E770B516460C460546FFF770FDFC
:10127000036893F80101012806D0FF2C0FD8185DF0
:1012800068B101202C7070BDD3F8070132462146A9
:1012900003F2071303442846BDE8704018474FF097
:1012A000FF3070BD10B500F0EBF8BDE8104000F065
:1012B000E2B870477546FFF747FDAE460500694640
:1012C000534620F00700854618B020B5FEF7E8FF2A
:1012D000BDE820404FF000064FF000074FF0000837
:1012E0004FF0000B21F00701AC46ACE8C009ACE8B8
:1012F000C009ACE8C009ACE8C0098D4670470000E1
:10130000004870479C0A00202DE9F0411F46044622
:1013100003260168072A01F4006004DB08B116A562
:1013200005E016A503E008B115A500E015A521F01C
:1013300010002060A069C01EA0610FB1401EA06116
:101340002046FFF7CFFA4FB1D4E901213846904744
:10135000206A401C2062C01C206206E0206AFAE776
:10136000D4E9012115F8010B9047761EF8D22046EA
:10137000FFF7CEFABDE8F0814E414E006E616E007F
:10138000494E4600696E66002DE9F04781461646D3
:101390008AB0334878440DC88DE80D003048784451
:1013A000801C03AC0DC884E80D0041F69B30084456
:1013B000372190FBF1F290FBF1F5A5F1800501FBDF
:1013C00012041B3C02D56442012000E00020DFF83B
:1013D00090A080460027FA44AAF1BE0A0DE0E0077B
:1013E00009D03246684607EB47010AEB810100F05D
:1013F0005BFB8DE8070064107F1C002CEFD1184FB9
:101400007F44AC3F18E0E80714D007EB04100DF15F
:10141000180A90E80E008AE80E00C068F04201D178
:1014200098190890324606A903A800F03DFB03ABCB
:1014300083E807006D10641C002DE4D13246694634
:10144000B8F1000F03A802D000F01AFB01E000F091
:101450002BFBC9E90001C9F808200AB0BDE8F087F4
:10146000E437000010B50446AFF300802046BDE825
:101470001040FEF700BF002801D000F029B87047E7
:1014800010B5012805D0002103A000F027F80120A5
:1014900010BD09A1F8E7000053494752544D454D8E
:1014A0003A204F7574206F662068656170206D6505
:1014B0006D6F7279000000003A2048656170206D00
:1014C000656D6F727920636F7272757074656400F8
:1014D00001491820ABBEFEE72600020070B50546A4
:1014E0000C460A2000E06D1C00F052F835B1287857
:1014F0000028F8D102E0641C00F04AF814B120780A
:101500000028F8D1BDE870400A2000F041B8000082
:101510004FF0013C50F8042B51F8043B9A4221D182
:10152000A2EB0C03934313EACC1317D150F8042B0E
:1015300051F8043B9A4215D1A2EB0C03934313EAF2
:10154000CC130BD150F8042B51F8043B9A4209D12B
:10155000A2EB0C03934313EACC13DBD04FF0000053
:10156000704700BFD01A01BAB1FA81F101F0180139
:1015700022FA01F0CB40C1F12001DBB2C0B2C01AA7
:101580002CFA01F3D11A914311EAC311E6D1704745
:1015900008B569468DF800000320ABBE08BD5FEAC0
:1015A000400C08BF91F0000F4FEA8C234FEAC12294
:1015B00043EA51514FEA1C5018BF00F5F0404FEA82
:1015C000300018BF41F000415FEA6C5C00F02980F8
:1015D000BCF1FF3F08BF40F080407047130C06BFCE
:1015E00012044FF0100C4FF0000C130E04BF120247
:1015F0000CF1080C130F04BF12010CF1040C930F33
:1016000004BF92000CF1020CD30F04BF52000CF186
:10161000010C11464FF00002A0F11F00A0EB0C00DE
:10162000704711F0004F08BF704731F000413FF4A0
:10163000D5AF0B0C06BF09044FF0100C4FF0000C97
:101640000B0E04BF09020CF1080C0B0F04BF0901BB
:101650000CF1040C8B0F04BF89000CF1020CCB0FB2
:1016600004BF49000CF1010CCCF12003A0EB0C00ED
:1016700022FA03F302FA0CF241EA030100F101003D
:10168000704720F07F4C80EA030023F07F47ACEBEB
:10169000070303F57C5300F0004003F1FF032DE93D
:1016A00080494FEA154B09B44FEA144325EA0B4E23
:1016B00024EA03480FF2042606EB132749083E7874
:1016C0005FEA320203FB0667C7F5000707FB06F671
:1016D0004FEA54374FEAD64606F1020607FB066C7E
:1016E000CCF1005C4FEA1C472CEA074C07FB06F4E0
:1016F0000CFB06F504EB15464FEA961634BF0020A6
:101700004FF000404FEAD13706FB07FC4FEA1C4C74
:101710000CFB0BF7D21B03FB0CF761EB07010CFB77
:101720000EF7B0EB074072EB17420CFB08F734BF23
:10173000A2EB0742B2EB074261EB17414FEA0C44C0
:101740004FEA910706FB07FC4FEA1C4C0CFB0BF71A
:10175000B0EBC74072EB573203FB0CF734BFA2EB80
:10176000C742B2EBC74261EB57310CFB0EF7B0EB4F
:10177000C70072EB57720CFB08F734BFA2EBC7022D
:10178000B2EBC70261EB5771039F4FEA816141EAF7
:10179000921104EBCC044FEAD1374FEA826206FB88
:1017A00007FC42EA90124FEA80604FEA1C4C0CFBA7
:1017B0000BF7D21B03FB0CF761EB07010CFB0EF7D9
:1017C000B0EB074072EB17420CFB08F734BFA2EBFB
:1017D0000742B2EB074261EB17414FEA8C554FEAE3
:1017E000910704EB9C2406FB07FC4FEA1C4C0CFB06
:1017F0000BF7B0EBC74072EB573203FB0CF734BF6B
:10180000A2EBC742B2EBC74261EB57310CFB0EF7BC
:10181000B0EBC70072EB57720CFB08F734BFA2EBBA
:10182000C702B2EBC70261EB577115EB4C254FEACB
:10183000816141EA92114FEA82624FEAD13742EA6E
:10184000901206FB07FC44F100044FEA80604FEA67
:101850001C4C0CFB0BF7D21B03FB0CF761EB0701D5
:101860000CFB0EF7B0EB074072EB17420CFB08F7CE
:1018700034BFA2EB0742B2EB074261EB174115EB15
:101880001C154FEA813141EA92414FEA823242EA25
:1018900090424FEA80304FEA0C7644F1000448EA67
:1018A00003434EEA0B484FF0000EB2EB080C71EB0D
:1018B000030724BF624639464EEB0E0E4FF0000B75
:1018C0000018524149414BEB0B0BB2EB080C71EB8A
:1018D00003077BF1000B24BF624639464EEB0E0E28
:1018E0004FF0000B0018524149414BEB0B0BB2EB90
:1018F000080C71EB03077BF1000B24BF62463946ED
:101900004EEB0E0E51EA020718BF46F0010616EB29
:101910000E7655F1000254F1000103D5BDE88901AE
:10192000BDE80088BDE88901BDE80048B61952410C
:1019300041EB0101A3F10103704780807F7E7D7C34
:101940007B7A7978777676757473727171706F6E51
:101950006E6D6C6C6B6A6A696868676666656464FC
:10196000636362616160605F5F5E5E5D5D5C5C5B86
:101970005B5A5A59595858575756565555555454F5
:10198000535352525251515050504F4F4F4E4E4D53
:101990004D4D4C4C4C4B4B4B4A4A4A49494948489F
:1019A00048474747474646464545454444444443DF
:1019B00043434342424242414141002B26D47700F7
:1019C00021D01CB54FEA370703B44FF010004FF099
:1019D00010014FF000000FBCBDE810400BF1010BEF
:1019E000BBF1010F08BF5FEA170722BF12F1010226
:1019F00011F101014FF0004143F1000300F00040FC
:101A000043EA00007047F9D35708DAE746EA06468A
:101A100013F1400F4FEA16461FDD13F1200FDFBF11
:101A200016430A46002120335B42C8D0C3F1200789
:101A300046EA064602FA07F74FEA164646EA07065E
:101A4000C3F1200722FA03F201FA07F721FA03F1A2
:101A50004FF0000342EA0702B1E746EA020646EA0F
:101A600006464FEA164646EA0106BCBF46EA064667
:101A7000360C4FF000034FF000024FF000019EE7DC
:101A80002DE9C048934630B491E8380007C831EAE0
:101A9000400C48BF34EA430C03D5FFF7F2FDFFF7D3
:101AA0008CFFF0BCBDE800882DE9C048934630B4F7
:101AB00091E8380007C810F0804F08BF13F0804F3E
:101AC00003D100F005F8FFF778FFF0BCBDE800880F
:101AD00020F07F4780EA030023F07F4C07EB0C03E4
:101AE000A3F57C5300F00040A3F1FE0392F0000F39
:101AF00000F0B38095F0000F00F077802DE90149E8
:101B00004FEA11404FEA144621EA004800FB06FC68
:101B100024EA064708FB06F607FB08F800FB07F770
:101B200018EB06484CEB164C4FEA124B18EB0748E3
:101B30004FEA15464CEB174022EA0B4E0BFB06FC16
:101B400025EA06470EFB06F607FB0EFE0BFB07F722
:101B50001EEB064E4CEB164C4FF000061EEB074EEC
:101B60004CEB174B18EB0B0840F1000018EB0E0B79
:101B700058EB000840F100008F1A4FF000013CBF05
:101B8000C943661B14BFB5EB040C00213CBFC9431D
:101B9000F61B4FEA17444EEA8E0E27EA04454FEA39
:101BA0001C4704FB07622CEA074C05FB07F70CFBFC
:101BB00005F604FB0CFC16EB074642EB174216EB4E
:101BC0000C4642EB1C421BEB060658EB020241415D
:101BD00046EA9E0601D5BDE80189B619524141EB9E
:101BE0000101A3F10103BDE801894FEA14454FEA61
:101BF000114724EA054621EA074C05FB07F406FBDA
:101C000007F70CFB06F105FB0CFC11EB074144EB5D
:101C100017444FEA124711EB0C4144EB1C4422EAF3
:101C2000074C05FB07F206FB07F70CFB06F605FB66
:101C30000CFC16EB074642EB174216EB0C4642EB48
:101C40001C456A1854F1000148BF7047B61952414B
:101C500041EB0101A3F10103704795F0000F37D06C
:101C60004FEA11424FEA144721EA024624EA074CA0
:101C700002FB07F106FB07F70CFB06F402FB0CFC6A
:101C800014EB074441EB17414FEA154714EB0C44A2
:101C900041EB1C4125EA074C02FB07F506FB07F761
:101CA0000CFB06F602FB0CFC16EB074645EB174552
:101CB00016EB0C4645EB1C42121951F1000148BFCE
:101CC0007047B619524141EB0101A3F1010370477E
:101CD0004FEA14454FEA114724EA054621EA074C2A
:101CE00005FB07F106FB07F70CFB06F24FF00006B9
:101CF00005FB0CFC12EB074241EB174112EB0C42C7
:101D000051EB1C4148BF7047921841EB0101A3F110
:101D10000103704700BFFEE730B5002314E001F077
:101D2000800400F4004584EA25242CB14FF6FF74AA
:101D300004EA4000504003E04FF6FF7404EA40001C
:101D40004C06210E5C1CE3B2082BE8DB30BD70476B
:101D500010B580210348FEF727FD002002490880C6
:101D600010BD0000FA0900204C09002070B505469E
:101D7000002400BF00F038F980B90DA10E48FEF72D
:101D80006DFC044654B13A212046FEF74BFC044654
:101D900014B1641C204670BD0020FCE7052002F051
:101DA000B5F9281EA5F101018DB2E3D100BFF2E71C
:101DB0004950442C00000000FA09002010B5FFF73C
:101DC000C7FF28A1294802F0DDF803E04FF4FA70BC
:101DD00002F09CF926A127A000F0B8F80028F5D160
:101DE00026A1224802F0CEF803E04FF4FA7002F088
:101DF0008DF91FA124A000F0A9F80028F5D126A193
:101E00001A4802F0BFF803E04FF4FA7002F07EF9CE
:101E100017A125A000F09AF80028F5D126A11348B3
:101E200002F0B0F803E04FF4FA7002F06FF910A17D
:101E300024A000F08BF80028F5D12DA10B4802F06A
:101E4000A1F803E04FF4FA7002F060F92CA12EA083
:101E500000F07CF80028F5D136A1044802F092F891
:101E600010BD0000312E2041540D0A000038014001
:101E70004F4B000041540D0A00000000322E204359
:101E8000574D4F44450D0A0041542B43574D4F4485
:101E9000453D310D0A000000332E2041542B43579D
:101EA000444843500D0A000041542B4357444843D3
:101EB000503D312C310D0A00342E2043574A4150F9
:101EC0000D0A000041542B43574A41503D225748C8
:101ED000525F4C465F4F54415F30315F3344222C98
:101EE000223132333435363738220D0A00000000F3
:101EF000352E2043495053544152540D0A000000DE
:101F0000434F4E4E4543540041542B434950535484
:101F10004152543D22544350222C223138332E3228
:101F200033302E34302E3339222C363030320D0AF5
:101F300000000000362E20455350383236362049F6
:101F40006E6974204F4B0D0A000000002DE9F0412E
:101F500004460D46C8262046FEF7B6FB87B23A4631
:101F600021460D4802F032F80FE000F03DF848B984
:101F700029460A48FEF772FB20B1FFF7E9FE002070
:101F8000BDE8F0810A2002F0C1F8301EA6F101017F
:101F9000CEB2EAD10120F3E700440040FA09002064
:101FA00030B589B004460D46FFF7D2FE2A4608A197
:101FB00001A8FEF7F7F90AA101A8FFF7C7FF20B9AA
:101FC0002A462146074802F001F809B030BD00005A
:101FD00041542B43495053454E443D25640D0A005E
:101FE0003E000000004400400A48008808B9012073
:101FF00070470848008808490988884203D10020B2
:1020000004490880F4E70348008803490880012058
:10201000EEE700004C0900204E09002010B54FF4F7
:10202000004000F011F828B1012003490870C003F6
:1020300000F004F810BD00004000002001490860D5
:102040007047000014040140014600200022074BA5
:102050001B6803EA0102054B14331B680B4013B1E4
:102060000AB1012000E00020704700000004014098
:10207000002123498279002A3AD00A46126803686F
:102080009A430B461A600A1D126803689A430B1D97
:102090001A60027911440A6803681A430A60184AF0
:1020A0000832126803689A43154B08331A601A1DE8
:1020B000126803689A43124B0C331A604279102A53
:1020C0000ED11A1F126803681A430D4B08331A60A9
:1020D0001A1D126803681A43094B0C331A600DE08D
:1020E0000749427911440A6803681A430A6005E007
:1020F000027911440A6803689A430A607047000035
:102100000004014030B500228B071C0F0F2303FA97
:1021100004F20B4B8C1053F824309343084C8D1071
:1021200044F8253023468C1053F824308C07240FB4
:1021300000FA04F42343024C8D1044F8253030BDDE
:10214000080001402DE9F04102460025002600204C
:1021500000230024002791F803C00CF00F0591F82C
:1021600003C00CF0100CBCF1000F03D091F802C0BA
:102170004CEA050591F800C0BCF1000F31D014689D
:1021800000202BE04FF0010C0CFA00F3B1F800C076
:102190000CEA03069E4220D183004FF00F0C0CFA8C
:1021A00003F7BC4305FA03FC4CEA040491F803C0AE
:1021B000BCF1280F06D14FF0010C0CFA00FCC2F85C
:1021C00014C00AE091F803C0BCF1480F05D14FF0EC
:1021D000010C0CFA00FCC2F810C0401C0828D1D336
:1021E0001460B1F800C0BCF1FF0F34DD546800206A
:1021F0002EE000F1080C4FF0010808FA0CF3B1F8DA
:1022000000C00CEA03069E4221D183004FF00F0C60
:102210000CFA03F7BC4305FA03FC4CEA040491F8FA
:1022200003C0BCF1280F05D100F1080C08FA0CF826
:10223000C2F8148091F803C0BCF1480F07D100F137
:10224000080C4FF0010808FA0CF8C2F81080401C86
:102250000828CED35460BDE8F0810000F0B50A46EE
:10226000002300240021002500F00046B6F1004FB5
:1022700002D11D4EF16901E01B4E7168C0F30345A8
:1022800083B200F44016B6F5401F08D121F070610A
:10229000154E766826F07066134F7E6012E000F4EB
:1022A0008016B6F5801F06D1032606FA05F4A14371
:1022B00041F0706106E0460D360103FA06F6B143BF
:1022C00041F0706122B1460D360103FA06F6314342
:1022D00000F00046B6F1004F02D1034EF16101E07B
:1022E000014E7160F0BD0000000001400246002078
:1022F00093680B400BB1012000E000207047416162
:102300007047016170470AB1016100E041617047A7
:1023100000BFFEE710B54FF4A06000F0C9FB4FF41A
:10232000E13001F081FD4FF4E13001F0D5FD02A173
:10233000064801F027FE10BD204861726477617283
:102340006520696E6974204F4B0D0A00003801400A
:1023500008B50121182000F0DFFF4FF44270ADF8FE
:10236000000010208DF8030003208DF8020069465C
:102370000848FFF7E7FE4FF40050ADF800001020CA
:102380008DF8030003208DF8020069460248FFF72C
:10239000D9FE08BD000C01400010014010B50446F4
:1023A000207B012802D12068FDF7BBFF00202060C0
:1023B0006060A060207310BD0246002301230DE081
:1023C00002F07F000870D2092AB1087840F080003E
:1023D0000870491C01E0184670475B1C042BEFDDB8
:1023E0004FF0FF30F8E770B504460E460025206830
:1023F00098B9012020733046FDF764FF2060206803
:10240000E0B100206060A66003E00020216848552C
:102410006D1CA068A842F8D810E00220207303E0E9
:102420000020216848556D1CA068A842F8D80020FB
:102430006060A068B04201D20020206070BD000042
:102440002DE9FF4F83B082468B469146159C0025AF
:10245000002002900F2701904846FEF735F90FFA49
:1024600080F8B9F1000F03D1012007B0BDE8F08F6B
:1024700008F10200384487B2109808B145F002050F
:10248000129878B145F004051298FEF71DF9C0B214
:1024900002901398FEF718F901460298001D0844AF
:1024A000384487B2119820B1012804D0022808D1FD
:1024B00004E000BF07E045F00C0504E045F014051A
:1024C00001E00220D1E700BF149808B145F02405CF
:1024D000BAF1000F02D0BBF1000F01D10320C4E715
:1024E00045F0C0055046FEF7EFF806465846FEF7A1
:1024F000EBF83044001D384487B239462046FFF7D8
:1025000072FF206808B90420AFE739462068FEF75B
:102510004BF910216268501C606020688154D4E936
:102520000023D118781FFFF747FF00B201900198F0
:10253000002804DA2046FFF731FF052095E761689F
:1025400001980844606000216268501C6060206847
:10255000815404216268501C6060206881544D21C0
:102560006268501C60602068815451216268501C70
:1025700060602068815454216268501C606020684B
:1025800081546268501C6060206881540421626834
:10259000501C6060206881546168481C606020683D
:1025A00045540698010A6268501C60602068815496
:1025B0000698C1B26268501C606020688154C8F3FC
:1025C00007216268501C6060206881546268501C5A
:1025D0006060206800F80280D4E900128818424642
:1025E0004946FEF729F860684044606005F0040041
:1025F000B8B30026139808B938A013901298FEF7C4
:1026000063F886B2310A6268501C606020688154A9
:102610006268501C606020688654D4E900128818F3
:1026200032461299FEF708F86068304460601398EB
:10263000FEF74AF886B2310A6268501C6060206872
:1026400081546268501C606020688654D4E900128E
:10265000881832461399FDF7EFFF606830446060D8
:1026600000BF05F08000C8B15046FEF72DF886B2D5
:10267000310A6268501C6060206881546268501C96
:10268000606020688654D4E90012881832465146AA
:10269000FDF7D2FF60683044606000BF05F0400085
:1026A000C8B15846FEF710F886B2310A6268501C6D
:1026B0006060206881546268501C606020688654A5
:1026C000D4E90012881832465946FDF7B5FF606814
:1026D0003044606000BF0020C7E60000000000003A
:1026E0002DE9FF4F83B0834617469946139C00257A
:1026F00000260020029001908046BBF1000F03D11C
:10270000012007B0BDE8F08F00260AE00498805D44
:10271000232803D00498805D2B2801D10220F0E704
:10272000761C0498805D0028F0D148F0300811989C
:1027300008B148F0010806EB0900851C109820B18B
:10274000012804D002280AD105E000BF09E048F0C2
:102750000208AD1C05E048F00408AD1C01E00320B0
:10276000CFE700BF8FB33878022821D14FF0000A9D
:1027700000BF50460AF1010A385C7D28F9D1AAF160
:10278000030A0AF1070002900298A9EB000AE81C6C
:10279000A0EB0A012046FFF726FE206808B90420B6
:1027A000AFE7EA1CA2EB0A012068FDF7FDFF19E084
:1027B000691D2046FFF717FE206808B90420A0E72E
:1027C000691D2068FDF7F0FF0CE0FFE7691D20465A
:1027D000FFF709FE206808B9042092E7691D206808
:1027E000FDF7E2FF6168481C6060206800F8018026
:1027F000D4E9000281182846FFF7DEFD0190019818
:10280000002804DA2046FFF7C9FD052079E7616852
:10281000019808446060C6F307216268501C60603C
:10282000206881546268501C606020688654D4E936
:102830000012881832460499FDF7FEFE60683044A5
:102840006060109860B14FEA1B216268501C6060A4
:10285000206881546268501C6060206800F802B0F3
:10286000C7B1387802280BD1D4E90012881839464C
:10287000029AFDF754FF616802980844606009E01D
:10288000D4E9001288184A463946FDF748FF6068C7
:1028900048446060002034E72DE9FF4107460D46BB
:1028A00090461E460A9C01200021CDE90001EB1C48
:1028B0000A460FA1CDE902040A20FFF711FF88B9EB
:1028C0006168481C606020684654C5F3072162684F
:1028D000501C6060206881546268501C60602068F1
:1028E000855403E0012004B0BDE8F0810020FAE740
:1028F00024647000F0B504460D46264601230020EE
:102900001060002114E0775C07F07F07106807FB78
:1029100003001060705C00F0800008B9481CF0BD36
:10292000DB01B3F5001F02D36FF00100F7E7491C8C
:10293000A942E8DB4FF0FF30F1E701464878022872
:1029400001D001207047887810B18878012801D122
:10295000C878F7E7FF20F5E7F8B50446FF272078A9
:102960000511012D01DB0E2D01DD3846F8BD032DCB
:1029700024D1002000906A460421601CFFF7BAFFB2
:102980002044461C0098022803D3207800F0010060
:1029900008B1FF20EAE77078317840EA0120801C16
:1029A0000099884201D9FF20E0E706A1B01CFDF79D
:1029B00055FE08B10F2700E0032700E02F463846F8
:1029C000D4E70000246372657100000010B501F0C7
:1029D0007BFBFFF7BDFC00F0CFF800F073F8172287
:1029E0000021084600F06EF918220021102000F0A6
:1029F00069F919220021202000F064F91A2200212F
:102A0000302000F05FF91B220021402000F05AF92D
:102A10001C220221002000F055F91D220221102065
:102A200000F050F91E220221202000F04BF91F2255
:102A30000221302000F046F910BD00BFFEE77047CC
:102A400070B5002100230F22C47804B3154C24680C
:102A500004F4E064C4F5E064210AC1F10403CA404F
:102A6000447804FA03F184781440214309010E4CA0
:102A70000678A155047804F01F050124AC400578C0
:102A80006D11AD0005F1E025C5F8004109E00478BD
:102A900004F01F050124AC40044D0678761145F87A
:102AA000264070BD0CED00E000E400E080E100E0B5
:102AB00002490143024A1160704700000000FA0514
:102AC0000CED00E070B5002418E004F1B000002126
:102AD00000F099F90021084600F095F90021102036
:102AE00000F091F9002505E00121002000F08BF9AC
:102AF000681CC5B2802DF7DB601CC4B2082CE4DB77
:102B000070BD000010B54FF480410948FFF7F9FB94
:102B10004FF400410648FFF7F4FB4FF4004104482E
:102B2000FFF7EDFB4FF480410148FFF7E8FB10BDD4
:102B3000000C014010B54FF480410748FFF7E1FB5E
:102B40004FF400410448FFF7DAFB4FF4004102481C
:102B5000FFF7D7FB10BD0000000C014010B54FF48B
:102B600080410448FFF7CDFB4FF480410148FFF757
:102B7000C6FB10BD000C014008B50121092000F082
:102B8000CBFB01214348FFF769FB4FF44040ADF810
:102B9000000010208DF8030003208DF80200694624
:102BA0003D48FFF7CFFA4FF440413B48FFF7A9FB00
:102BB0004FF4487001F0AAFA0021AE2000F023F98A
:102BC0000021084600F01FF90021102000F01BF939
:102BD0000021402000F017F90021B02000F013F987
:102BE0000021812000F00FF90021FF2000F00BF9F7
:102BF0000021A12000F007F90021A62000F003F930
:102C00000021A82000F0FFF800213F2000F0FBF891
:102C10000021C82000F0F7F80021D32000F0F3F8DD
:102C20000021084600F0EFF80021D52000F0EBF875
:102C30000021802000F0E7F80021D82000F0E3F820
:102C40000021052000F0DFF80021D92000F0DBF89A
:102C50000021F12000F0D7F80021DA2000F0D3F8AD
:102C60000021122000F0CFF80021DB2000F0CBF88B
:102C70000021302000F0C7F800218D2000F0C3F8BB
:102C80000021142000F0BFF80021AF2000F0BBF8B5
:102C900008BD000000023000000C014070B5044681
:102CA0000D4605F1B000002100F0ADF8102141EA19
:102CB0001410002100F0A7F804F00F00002100F02C
:102CC000A2F870BD2DE9F04180460E46154600275A
:102CD00031464046FFF7E2FF00240AE0124A02EBC9
:102CE0008511085D012100F08EF8781CC7B2601CC8
:102CF000C4B2102CF2DB701CC1B24046FFF7CEFF0D
:102D000000240CE06900491C074A02EB4111085DF0
:102D1000012100F078F8781CC7B2601CC4B2102CF6
:102D2000F0DBBDE8F08100004B0000202DE9F0470A
:102D300007460E469046994600250024A8F120003B
:102D4000C5B27F2F02DD0027B01CC6B2B9F1100F4B
:102D500024D131463846FFF7A1FF002408E004EBF8
:102D60000511194A505C012100F04DF8601CC4B2F5
:102D7000082CF4DB701CC1B23846FFF78FFF00242B
:102D800009E004EB051108310F4A505C012100F005
:102D90003AF8601CC4B2082CF3DB12E03146384626
:102DA000FFF77CFF00240AE005EB4501074A02EB30
:102DB0004101085D012100F026F8601CC4B2062C18
:102DC000F2DBBDE8F0870000BC4400089442000834
:102DD0002DE9F04105460E4614461F460EE02278C6
:102DE0003B4631462846FFF7A1FF05F10800C5B272
:102DF000782D02DD0025B01CC6B2641C20780028A6
:102E0000EDD1BDE8F08170B504460D461DB1E0B2CC
:102E100000F04AF802E0E0B200F030F870BD0000C7
:102E20002DE9F04105462C464FF480411248FFF74A
:102E300066FA00261CE0274607F08007802F04D1A1
:102E400039020D48FFF75DFA04E04FF400410A48EB
:102E5000FFF755FA6006040E4FF480410648FFF76D
:102E600050FA4FF480410448FFF749FA701CC6B28B
:102E7000082EE0DBBDE8F081000C014010B50446EF
:102E8000FFF740FE7820FFF7CBFFFFF767FE00203B
:102E9000FFF7C6FFFFF762FE2046FFF7C1FFFFF70F
:102EA0005DFEFFF747FE10BD10B50446FFF72AFE92
:102EB0007820FFF7B5FFFFF751FE4020FFF7B0FF86
:102EC000FFF74CFE2046FFF7ABFFFFF747FEFFF78B
:102ED00031FE10BD30B58BB00020079008900990EE
:102EE0000A90012537A03AA33BA23DA10090484893
:102EF00001F048F807A8002102910391CDE90410E0
:102F000000912B022FA2019131A133A0FFF798FA73
:102F100000284FD1089A91B20798FFF741F84FF473
:102F2000FA70FEF723FF04463AA1394801F02AF867
:102F3000002C3BD039A1364801F024F82046FFF799
:102F40000BFD022832D137A1314801F01BF8204691
:102F5000FFF7F3FC062823D2DFE800F003090E1385
:102F6000181D32A12A4801F00DF800251DE034A1FA
:102F7000274801F007F818E038A1254801F002F8C9
:102F800013E03FA1224800F0FDFF0EE044A12048DD
:102F900000F0F8FF09E04BA11D4800F0F3FF04E04A
:102FA00053A11B4800F0EEFF00BF00BF07A8FFF7CA
:102FB000F5F903E055A1164800F0E4FF28460BB0F0
:102FC00030BD00003130353836343335303800000C
:102FD0003132333435360000353832323437000080
:102FE0004F6E654E65745F4465764C696E6B0D0A75
:102FF00050524F49443A2025732C09415549463ACD
:103000002025732C0944455649443A25730D0A007E
:10301000003801405741524E0D0A00005741524EB0
:10302000320D0A005741524E330D0A005469707335
:103030003A09C1ACBDD3B3C9B9A60D0A000000005E
:103040005741524E3A09C1ACBDD3CAA7B0DCA3BAAE
:10305000D0ADD2E9B4EDCEF30D0A00005741524E87
:103060003A09C1ACBDD3CAA7B0DCA3BAB7C7B7A8E9
:10307000B5C4636C69656E7469640D0A0000000074
:103080005741524E3A09C1ACBDD3CAA7B0DCA3BA6E
:10309000B7FECEF1C6F7CAA7B0DC0D0A00000000EB
:1030A0005741524E3A09C1ACBDD3CAA7B0DCA3BA4E
:1030B000D3C3BBA7C3FBBBF2C3DCC2EBB4EDCEF3FF
:1030C0000D0A00005741524E3A09C1ACBDD3CAA700
:1030D000B0DCA3BAB7C7B7A8C1B4BDD328B1C8C8BC
:1030E000E7746F6B656EB7C7B7A8290D0A000000BB
:1030F0004552523A09C1ACBDD3CAA7B0DCA3BACE7F
:10310000B4D6AAB4EDCEF30D0A0000005741524EDA
:103110003A094D5154545F5061636B6574436F6E4F
:103120006E656374204661696C65640D0A00000079
:1031300010B588B0044620216846FDF757FB13A15F
:103140002046FDF79DFA20216846FDF74FFB104809
:10315000028810A16846FDF725F969462046FDF76B
:10316000D2FA20216846FDF741FB0C4802880CA1E9
:103170006846FDF717F969462046FDF7C4FA204670
:10318000FDF7A2FAC0B208B010BD00002C3B000051
:10319000500900204D51312C25643B00520900207C
:1031A0004D51322C25643B00F0B5A5B006460F46C4
:1031B00000202190229023902490002400251D4877
:1031C00006801D4807801DA1244800F0DBFE8021F9
:1031D00001A8FDF70BFB01A8FFF7AAFF0446002C8E
:1031E00026D021A805230022214600901CA0FFF72D
:1031F00053FBC8B908E001A8415D229A501C2290F7
:1032000021988154681C05B2A542F4DB229A91B240
:103210002198FEF7C5FE15A11048229A00F0B2FED3
:1032200021A8FFF7BBF803E014A10C4800F0AAFEA8
:1032300025B0F0BD50090020520900205469707378
:103240003A094F6E654E65745F53656E64446174F0
:10325000612D4D5154540D0A00000000003801400A
:1032600031303538363433353038000053656E64CC
:103270002025642042797465730D0A005741524E2F
:103280003A094544505F4E6577427566666572201F
:103290004661696C65640D0A0000000010B54FF4CA
:1032A00080611348FFF72DF8002400E0641C0A2C0D
:1032B000FCD34FF480610E48FFF721F8002400E0B2
:1032C000641C0A2CFCD34FF480610948FFF719F8FD
:1032D000002400E0641CC82CFCD3302000F02EFC3D
:1032E000002400E0641CB4F5FA6FFBD310BD0000AD
:1032F000000C01407047000029B1064AD269024320
:10330000044BDA6104E0034AD2698243014BDA617B
:10331000704700000010024029B1064A926902433A
:10332000044B9A6104E0034A92698243014B9A611B
:10333000704700000010024030B500210022002438
:1033400000232D4D6D6805F00C0121B1042905D035
:10335000082923D105E0294D056022E0274D0560AD
:103360001FE0254D6D6805F47012234D6D6805F45E
:103370008034022505EB92421CB9214D554305606E
:103380000BE01D4D6D6805F400351DB11C4D554316
:10339000056002E0194D5543056002E0174D0560D8
:1033A00000BF00BF144D6D6805F0F0010909154D0F
:1033B0006B5C0568DD4045600F4D6D6805F4E061AC
:1033C000090A104D6B5C4568DD4085600A4D6D68EB
:1033D00005F46051C90A0B4D6B5C4568DD40C56062
:1033E000054D6D6805F44041890B074D6B5CC56860
:1033F000B5FBF3F5056130BD0010024000127A0004
:1034000000093D002C0000203C0000200EB50121E9
:103410000846FFF781FF28208DF8000000208DF876
:1034200001008DF8020001208DF803006846FFF7C7
:1034300007FB0F210020FEF765FE4FF400400190CE
:1034400000208DF808000C208DF8090001208DF86F
:103450000A0001A8FEF70CFE0EBD2DE9F04306465A
:103460000F4614460025A846A946012C02D148F271
:10347000050001E041F221008146012C02D14FF606
:10348000FF7001E041F60F508046002507E0715DB6
:103490004A464046FEF740FC8046681CC5B2BD4225
:1034A000F5DB012C02D14046BDE8F0836FEA08004D
:1034B00080B2F9E710B500F0FBF9362000F03EFBD2
:1034C00010BD000070B5002578480078072831D27B
:1034D000DFE800F004313D5059E5410000F02AFAE0
:1034E000734800787349087073480078734908700E
:1034F0000020734908706F480078724908700020F6
:1035000048706E48007888700020C870012204213D
:103510006C48FFF7A2FF044620126A4908714C71FB
:1035200008460078401CC1B2664800F080FA0120CD
:103530005E490870B7E000BF614800780028FBD002
:1035400000205F490870022058490870ABE006204F
:1035500056490870A7E000F007FA392000F0EEFAAB
:10356000362000F0EBFA0A2000F0D0FD00204F4991
:10357000087098E000F0C2F9342000F0DFFA04206F
:103580004A4908708FE04E48007800287AD0002021
:103590004D4908604A49087041214C4800F010F933
:1035A000002878D0342000F0C9FA4848007847490C
:1035B000497840EA01203F490870444880784349EF
:1035C000C97840EA01203D490870404840793F49A8
:1035D000097940EA01203E490880012204213B4844
:1035E000FFF73BFF3A490988884254D1642000F034
:1035F0008DFD002034490860642000F087FD012023
:103600003449C1F8A001FFF75DFA20220021102003
:10361000FFF758FB212200212020FFF753FB222235
:1036200000213020FFF74EFB232200214020FFF72E
:1036300049FB2048027828A12A48FCF7B3FE0C2356
:10364000284A03210820FFF7C3FB1C48027826A163
:103650002448FCF7A7FE0C23224A04210820FFF788
:10366000B7FB144800783C2803DC14480078B428E1
:1036700009DD012014491439086000201549C1F8FA
:10368000A40108E00AE000200F4914390860012075
:103690001049C1F8A40105200449087003E0032083
:1036A0000249087000BF00BF70BD00000A00002082
:1036B0000200002006000020040000200700002077
:1036C000400000205C090020A08121429C090020CC
:1036D0000800002000802142506F7320314D5F347C
:1036E0003A256400DC090020506F7320313A4D5FA9
:1036F000363A2564000000002DE9F04105460E46EB
:1037000017464FF480610F48FEF7F9FD002401E0F1
:10371000601CC4B2642CFBDB45F0C005284600F0F9
:103720005DF9002404E000F03BF93055601CC4B2A0
:10373000BC42F8DB4FF480610248FEF7E2FDBDE8D1
:10374000F0810000000C014070B504464FF4806128
:103750000B48FEF7D4FD002501E0681CC5B2642DBE
:10376000FBDB44F08004204600F038F900F018F943
:1037700006464FF480610248FEF7C3FD304670BD37
:10378000000C014070B504464FF480610B48FEF711
:10379000B6FD002501E0681CC5B2642DFBDB44F0DA
:1037A000C004204600F01AF900F0FAF806464FF47B
:1037B00080610248FEF7A5FD304670BD000C014057
:1037C000F8B505460E46362000F0B8F93B20FFF765
:1037D000D9FF044604F07F0000B33F20FFF7B4FF99
:1037E0000446B44215DA2C702246691C3F20FFF7CC
:1037F00083FF022269463F20FFF77EFF9DF800000D
:10380000094908703A2000F099F99DF80100C009B3
:10381000F8BD3A2000F092F90020F9E73A2000F0D4
:103820008DF90020F4E700004A00002008B50121CE
:103830000C20FFF771FD4FF4E050ADF800001020B0
:103840008DF8030003208DF8020069461648FEF744
:1038500079FC4FF40760ADF8000010208DF80300EC
:1038600003208DF8020069460F48FEF76BFC4FF409
:103870000050ADF8000048208DF8030069460A4862
:10388000FEF760FC4FF400510748FEF73AFD4FF495
:103890000040ADF8000048208DF803006946034859
:1038A000FEF750FC08BD0000000C0140000801407C
:1038B00010B5FFF7F3FC00F04FFC362000F03EF9A6
:1038C0003A2000F03BF93B2000F038F9332000F0BB
:1038D00035F9082207493E2000F092FB0649087896
:1038E000FFF732FF04494978884201D000BFFEE764
:1038F00010BD0000410000207842000810B50122F0
:1039000040210A48FEF7FFFC012220210748FEF76C
:10391000FAFC00224FF400610548FEF7F4FC012296
:1039200010210248FEF7EFFC10BD0000000C014022
:103930000008014010B5002240210948FEF7E3FCD1
:10394000012220210648FEF7DEFC0122D1020548B3
:10395000FEF7D9FC012210210148FEF7D4FC10BD6E
:10396000000C01400008014010B5002240210A4827
:10397000FEF7C9FC002220210748FEF7C4FC002204
:103980004FF400610548FEF7BEFC012210210248F9
:10399000FEF7B9FC10BD0000000C0140000801401A
:1039A00070B5002513E04FF480510B48FEF7A9FCD9
:1039B0006006040E4FF400510748FEF797FC0443DD
:1039C0004FF480510448FEF79AFC681CC5B2082DDC
:1039D000E9DB204670BD0000000C014070B50446D4
:1039E00000251CE004F0800028B14FF400610E486F
:1039F000FEF787FC04E04FF400610B48FEF77FFC04
:103A000000BF4FF480510848FEF77BFC6006040EAF
:103A10004FF480510448FEF772FC681CC5B2082DB3
:103A2000E0DB012070BD0000000C0140704770B564
:103A300004460D46362000F081F83B2000F07EF869
:103A40002A4621463F2000F0DBFA352000F076F8C8
:103A5000012070BD10B500F001F810BD0CB50020BC
:103A6000019000903348006840F48030314908608C
:103A700000BF3048006800F4003000900198401CFE
:103A80000190009818B90198B0F5A06FF1D12948BC
:103A9000006800F4003010B10120009001E0002027
:103AA00000900098012843D12348006840F010009E
:103AB000214908600846006820F0030008600846B5
:103AC000006840F0020008601A48406819494860E0
:103AD0000846406848600846406840F48060486096
:103AE0000846406820F47C1048600846406840F46E
:103AF000E81048600846006840F08070086000BF29
:103B00000C48006800F000700028F9D009484068AF
:103B100020F00300074948600846406840F0020072
:103B2000486000BF0348406800F00C000828F9D145
:103B30000CBD0000001002400020024070B5054698
:103B40004FF480610848FEF7DAFB002401E0601CB6
:103B5000C4B2642CFBDB2846FFF740FF4FF48061C2
:103B60000148FEF7CEFB70BD000C0140042808D1CF
:103B70004FF0E021096941F004014FF0E0221161AA
:103B800007E04FF0E021096921F004014FF0E02245
:103B9000116170477047000010B51348006840F08D
:103BA00001001149086008464068104908400E4964
:103BB0004860084600680E4908400B4908600846FE
:103BC000006820F4802008600846406820F4FE0069
:103BD00048604FF41F008860FFF73CFF4FF0006023
:103BE0000449086010BD0000001002400000FFF80A
:103BF000FFFFF6FE08ED00E010B540F22551044845
:103C000000F050F818B12021014800F029F810BD4B
:103C10000038014010B540F225510E4800F042F83E
:103C2000B0B10D480088802802D300200A490880DE
:103C30000848001D0088C1B2074802880088401C5F
:103C4000054B1880054881542021024800F008F8EF
:103C500010BD0000004400404C090020FA0900207B
:103C600001F40072B2F5007F00D100BFCA430280A8
:103C7000704721B1828942F40052828104E0828936
:103C80004DF6FF731A408281704702460020B1F55D
:103C9000007F00D100BF13880B400BB1012000E072
:103CA0000020704770B50246002400230025002044
:103CB00040F66A16B14200D100BFC1F3421501F0CF
:103CC0001F03012606FA03F3012D02D19689334022
:103CD00006E0022D02D1168A334001E0968A334075
:103CE0000C12012606FA04F41688344013B10CB104
:103CF000012000E0002070BDF0B50346002400263E
:103D00000025002040F66A17B94200D100BF1846CE
:103D1000C1F3421401F01F06012707FA06F5012C32
:103D200001D10C3004E0022C01D1103000E014303D
:103D30001AB107682F43076002E00768AF430760C6
:103D4000F0BD00002DE9F04786B005460E46002480
:103D5000A24600BFA1460027B08900B100BF2F4690
:103D60002C8A4CF6FF700440F08804432C82AC8906
:103D70004EF6F3100440B088318908437189084336
:103D80000443AC81AC8A4FF6FF400440B089044341
:103D9000AC8201A8FFF7D0FA1F48874202D1DDF8B4
:103DA00010A001E0DDF80CA0A88900F4004040B1AB
:103DB0000AEBCA0000EB0A1031684900B0FBF1F8C9
:103DC00007E00AEBCA0000EB0A1031688900B0FB7B
:103DD000F1F86420B8FBF0F004012009642101FB34
:103DE0001089A88900F4004040B1322000EBC900DE
:103DF000B0FBF1F000F00700044308E0322000EBD4
:103E000009106421B0FBF1F000F00F0004432C8195
:103E100006B0BDE8F087000000380140C1F3080299
:103E20008280704700BFFEE710B586B004460121CE
:103E30000420FFF771FA01218803FFF76DFA1820BB
:103E40008DF817004FF40070ADF8140003208DF8C2
:103E5000160005A91E48FEF775F904208DF8170015
:103E60000002ADF8140003208DF8160005A91848CB
:103E7000FEF768F901940020ADF810000C20ADF8B1
:103E80000E000020ADF80C00ADF80A00ADF80800F7
:103E900001A91048FFF756FF01210E48FFF7E9FE80
:103EA000012240F225510B48FFF726FF25208DF80F
:103EB000000001208DF8030000208DF80100022091
:103EC0008DF802006846FEF7BBFD06B010BD00008D
:103ED000000801400038014010B586B004460121B9
:103EE0000420FFF719FA01214804FFF705FA18200A
:103EF0008DF817000420ADF8140003208DF816008B
:103F000005A91E48FEF71EF904208DF817000820A9
:103F1000ADF8140003208DF8160005A91748FEF728
:103F200011F901940020ADF810000C20ADF80E003E
:103F30000020ADF80C00ADF80A00ADF8080001A9AA
:103F40000F48FFF7FFFE01210D48FFF792FE012207
:103F500040F225510A48FFF7CFFE26208DF80000D9
:103F600001208DF8030000208DF801008DF802007B
:103F70006846FEF765FD06B010BD00000008014070
:103F8000004400400FB430B5CBB0054601AC50A89A
:103F900000904FF4947101A8009B4F9AFCF7E8F948
:103FA000002000900BE014F8011B2846FFF736FFB5
:103FB00000BF40212846FFF768FE0028F9D020788E
:103FC0000028F0D14BB030BC5DF814FB2DE9F04176
:103FD00007460C46154600260DE014F8011B38462E
:103FE000FFF71CFF00BF40213846FFF74EFE0028B8
:103FF000F9D0701C86B2AE42EFDBBDE8F081000064
:104000002DE9F04105460E4617464FF480611048F1
:10401000FEF775F9002401E0601CC4B2642CFBDBE0
:1040200025F0800545F040052846FFF7D7FC002421
:1040300004E0305DFFF7D2FC601CC4B2BC42F8DB88
:104040004FF480610248FEF75CF9BDE8F0810000A2
:10405000000C014070B504460D464FF480610B48DA
:10406000FEF74DF9002601E0701CC6B2642EFBDBA2
:1040700024F080042046FFF7B1FC2846FFF7AEFC91
:104080004FF480610148FEF73CF970BD000C01401F
:10409000490050EAC12018BF04204A0D18BF40F063
:1040A000010040F2FF72B2EB515F08BF40F0020026
:1040B000012808BF0520704730380A2801D20120A6
:1040C000704700207047000010B56FF00400FFF744
:1040D0004DFD0A4800680A49B0FBF1F00949087033
:1040E0000846007800EB4001C1EBC0104FF6FF71AD
:1040F00001EAC0000449088010BD0000140000203F
:1041000000127A00280000202A0000200146114AEF
:1041100012884A434FF0E0235A6100229A611A46FE
:10412000126942F001021A6100BF4FF0E0221069EB
:1041300000F001021AB100F48032002AF5D04FF0ED
:10414000E022126922F001024FF0E0231A610022FE
:104150009A6170472A00002010B500240AE0074A3F
:1041600002EB44025178054A12F81400FFF772FF7F
:10417000601C84B20E2CF2D310BD000078420008FF
:10418000002400BFFEF722FCFFF750FBFFF792F977
:10419000FFF73CF901201B4908601B49C1F8B40135
:1041A0004FF49670FFF7B2FF002016490860FEF743
:1041B000B1F8FDF703FE03E04FF4FA70FFF7A6FF36
:1041C000FEF788FE0028F7D110480078012803D1B7
:1041D00000200F49087002E003200D4908700FE02D
:1041E000FFF770F9601C84B2B4F5FA7F08DB094868
:1041F000017809480078FEF7D7FF0024FDF7A8FDF5
:10420000EEE700008C8121420000224200000020E5
:104210000A000020070000200600002010B5002939
:104220000AD00878002807D005487844FDF770F9CF
:10423000002801D0002010BD0248784410BD0000C5
:104240008A0900008209000010B500290AD0087808
:10425000002807D005487844FDF75AF9002801D016
:10426000002010BD0248784410BD00006E0A000016
:10427000660A0000FCF7AABE020608050B080D5DE1
:104280000E930FB1108611831203154418181916D6
:10429000250026110000000000000000002F000093
:1042A00000000700070000147F147F1400242A7FF9
:1042B0002A12006264081323003649552250000078
:1042C0000503000000001C224100000041221C00E8
:1042D0000014083E08140008083E0808000000A06A
:1042E0006000000808080808000060600000002066
:1042F00010080402003E5149453E0000427F400044
:10430000004261514946002141454B3100181412C9
:104310007F10002745454539003C4A494930000196
:104320007109050300364949493600064949291EE5
:104330000000363600000000563600000008142247
:104340004100001414141414000041221408000247
:104350000151090600324959513E007C1211127C6C
:10436000007F49494936003E41414122007F414199
:10437000221C007F49494941007F09090901003E8B
:104380004149497A007F0808087F0000417F4100C9
:10439000002040413F01007F08142241007F40403F
:1043A0004040007F020C027F007F0408107F003E27
:1043B0004141413E007F09090906003E4151215E0D
:1043C000007F091929460046494949310001017F0A
:1043D0000101003F4040403F001F2040201F003FA0
:1043E0004038403F00631408146300070870080752
:1043F00000615149454300007F41410000552A5565
:104400002A55000041417F000004020102040040DF
:104410004040404000000102040000205454547801
:10442000007F484444380038444444200038444421
:10443000487F00385454541800087E0901020018BF
:10444000A4A4A47C007F080404780000447D4000FC
:10445000004080847D00007F102844000000417FE0
:104460004000007C04180478007C080404780038BC
:104470004444443800FC242424180018242418FC44
:10448000007C0804040800485454542000043F44AD
:104490004020003C4040207C001C2040201C003C70
:1044A0004030403C004428102844001CA0A0A07CC0
:1044B000004464544C4414141414141400000000F8
:1044C000000000000000000000000000000000F8F4
:1044D00000000000000000333000000000100C0657
:1044E000100C0600000000000000000040C07840F2
:1044F000C0784000043F04043F040400007088FCBE
:1045000008300000001820FF211E0000F008F00015
:10451000E018000000211C031E211E0000F0088886
:10452000700000001E2123241927211010160E00F0
:10453000000000000000000000000000000000E09B
:1045400018040200000000071820400000020418B0
:10455000E00000000040201807000000404080F00C
:10456000804040000202010F01020200000000F042
:10457000000000000101011F010101000000000016
:104580000000000080B0700000000000000000008B
:104590000000000000010101010101010000000014
:1045A00000000000003030000000000000000000AB
:1045B00080601804006018060100000000E0100888
:1045C0000810E000000F102020100F00001010F85D
:1045D000000000000020203F20200000007008089C
:1045E000088870000030282422213000003008881C
:1045F000884830000018202020110E000000C02044
:1046000010F8000000070424243F240000F8088864
:10461000880808000019212020110E0000E01088F1
:1046200088180000000F112020110E000038080823
:10463000C83808000000003F000000000070880833
:1046400008887000001C222121221C0000E01008B4
:104650000810E0000000312222110F00000000C00D
:10466000C0000000000000303000000000000080AA
:10467000000000000000806000000000000080409A
:1046800020100800000102040810200040404040B3
:104690004040400004040404040404000008102006
:1046A000408000000020100804020100007048084B
:1046B0000808F0000000003036010000C030C828B3
:1046C000E810E0000718272423140B000000C0386E
:1046D000E0000000203C23020227382008F88888E8
:1046E00088700000203F202020110E00C0300808F4
:1046F00008083800071820202010080008F80808CB
:104700000810E000203F202020100F0008F88888C3
:10471000E8081000203F20202320180008F888888F
:10472000E8081000203F200003000000C030080807
:104730000838000007182020221E020008F8080090
:104740000008F808203F210101213F20000808F857
:10475000080800000020203F20200000000008087A
:10476000F8080800C08080807F00000008F888C03A
:1047700028180800203F20012638200008F80800EB
:1047800000000000203F20202020300008F8F80022
:10479000F8F80800203F003F003F200008F830C034
:1047A0000008F808203F200007183F00E010080824
:1047B0000810E0000F10202020100F0008F8080853
:1047C0000808F000203F210101010000E010080866
:1047D0000810E0000F18242438504F0008F888888B
:1047E00088887000203F2000030C3020007088086B
:1047F000080838000038202121221C00180808F879
:10480000080818000000203F2000000008F80800F9
:104810000008F808001F202020201F0008788800CA
:1048200000C83808000007380E010000F80800F83A
:104830000008F800033C0700073C030008186880E4
:104840008068180820302C03032C30200838C8005A
:10485000C83808000000203F2000000010080808A9
:10486000C83808002038262120201800000000FE4B
:10487000020202000000007F40404000000C30C0F7
:1048800000000000000000010638C0000002020223
:10489000FE000000004040407F00000000000402D5
:1048A0000202040000000000000000000000000000
:1048B00000000000808080808080808000020204F0
:1048C00000000000000000000000000000008080E8
:1048D000808000000019242222223F2008F8008056
:1048E00080000000003F112020110E000000008019
:1048F00080800000000E11202020110000000080A8
:104900008088F800000E112020103F2000008080D9
:1049100080800000001F222222221300008080F0ED
:10492000888888180020203F202000000000808018
:1049300080808000006B94949493600008F800805D
:1049400080800000203F210000203F2000809898B8
:10495000000000000020203F202000000000008018
:104960009898000000C08080807F000008F8000058
:1049700080808000203F24022D302000000808F8AD
:10498000000000000020203F202000008080808068
:1049900080808000203F20003F20003F80800080FA
:1049A00080800000203F210000203F200000808008
:1049B00080800000001F202020201F0080800080B9
:1049C0008000000080FFA12020110E000000008068
:1049D00080808000000E112020A0FF808080800059
:1049E0008080800020203F21200001000000808086
:1049F000808080000033242424241900008080E07B
:104A0000808000000000001F202000008080000047
:104A100000808000001F202020103F208080800028
:104A20000080808000010E30080601008080008038
:104A3000008080800F300C030C300F00008080005D
:104A4000808080000020312E0E3120008080800088
:104A50000080808080818E70180601000080808038
:104A6000808080000021302C2221300000000000D6
:104A7000807C020200000000003F40400000000077
:104A8000FF00000000000000FF0000000002027CA8
:104A9000800000000040403F0000000000060101CF
:104AA00002020404000000000000000000081020C2
:104AB00040800000002010080402010004000008EB
:104AC00000000000000000020001000010000000D3
:104AD000000000000000000030313233343536373A
:104AE0003839414243444546403058003031323332
:104AF0003435363738396162636465664030780032
:104B000002400000000000A000000000054000007E
:104B1000000000C8000000000C4000000000409CA5
:104B200000000000194000000020BCBE0000000092
:104B300034400000BFC91B8E00000004B5400000D7
:104B4000504BCFD06607E2CF010000006C4100005F
:104B50003E8251AADFEEA73401000000D9420000D6
:104B6000DCB5A0E23A301F97FFFFFFFFB44500001D
:104B7000FD25A0C8E9A3C14FFFFFFFFFFF3F0000D5
:104B80000000008000000000FF3F000000000080E7
:104B900000000000E04C0008000000205C0900005C
:104BA000280100084C5000085C0900208407000020
:104BB0008C0100081001000043000000F8FFFFFF17
:104BC0000040404040404040404041414141414020
:104BD00040404040404040404040404040404040D5
:104BE0004005020202020202020202020202020264
:104BF0000220202020202020202020020202020269
:104C000002029090909090901010101010101010C0
:104C100010101010101010101010101002020202CC
:104C20000202888888888888080808080808080810
:104C3000080808080808080808080808020202020C
:104C40004000000000000000000000000000000024
:104C50000000000000000000000000000000000054
:104C60000000000000000000000000000000000044
:104C70000000000000000000000000000000000034
:104C80000000000000000000000000000000000024
:104C90000000000000000000000000000000000014
:104CA0000000000000000000000000000000000004
:104CB00000000000000000000000000000000000F4
:104CC000000000001C00000043000000F8FFFFFF90
:104CD0000C0000000E0000000F0000002E0000007D
:104CE000021200016004A24A040BA009010203049D
:104CF0000607080910611470070204060800FF3651
:104D000020091060028C0000FE92010211FE561074
:104D10000A04047E01407E42427E02F004427E404C
:104D2000763140413F011740000B104448507F400E
:104D3000407F50484440200B0000FC242424FC25E4
:104D4000262408F204D6F01040308F80844C55257C
:104D50002525554C80808020400620104C4754016A
:104D600000051AD4040400010005110F3040F08042
:104D70001004FE02820122FA05F782025620058005
:104D8000601F400111C10404104458400010074046
:104D900040424458C01F000511C05048462010072B
:104DA000808040201807C9223F460211787F040DF9
:104DB00010424242FE0042A29E82A2C2BED6400BD8
:104DC000806F080828CF00002FC808E5A0040F1046
:104DD00002E222223E00809E9292F292929E200453
:104DE000104F004382423E40474444447F44445471
:104DF000E780800400000801091196C2100101102B
:104E00003E040D1024236AAA2AAA6A2A2A2AEA0240
:104E10007F1008001011151515FF04171110C0069A
:104E200011F8212760F85F080611FF4020100800E4
:104E300012011B3405000402017F051180140604D1
:104E4000E45C44C440040611F0909F90904004102C
:104E500011013F10107F201806914C300F3048840C
:104E600081000C1202F2121212F2020202FE02C1C0
:104E700019780C09120404040F0040807FB603085F
:104E80001011807000FF10289827C43C907F90126A
:104E900014800C0E5018070898640328C621C0110E
:104EA00026C80003254015A5040412D0FFD09F3565
:104EB0004015590008110B08FF080B0408213E009B
:104EC0001F0336FF5F01161E3D3F03011422100B26
:104ED0001010FF100082BAEABA83040A11825E0C35
:104EE0000F8F180F04484A2AFF8A4A1A2F5A8A88B5
:104EF00080041404040AE41F21010E15087704201D
:104F0000050708102001061410961E389B0316385A
:104F1000E80915C02DE2041A08C061280D107E03AF
:104F20001C0589EA188867051AFC660A11FC9F2C83
:104F3000060100FF018684040C05124080403FA05A
:104F4000030C0E10F01F10F00040E0584740506076
:104F5000C000044C062215081621A7040E1242E1D7
:104F6000050D3D800310050000F888011A08600C4B
:104F70000512090AC80880050C0D120010201F80B8
:104F8000402116182641F87E0412F804294711CB57
:104F90000D114004040A1430101F088848300E0117
:104FA000001C074042CC0000443E061E7F46060916
:104FB0001320167FBA2D81040F125595C1030C0FD3
:104FC000112424A4FE232200E22C203F2028E61EE8
:104FD000050C0E140601FF010600FF0909094989A5
:104FE0007F7F032FF810BD051DBF050D1281031D26
:104FF000BF040C0B119F854424140F142444848097
:1050000004B3C0C005012E011536040A12FF10506A
:10501000445465C64464000C0E110444827F01822E
:10502000824A562322524E20071A00741807FF00A6
:105030004020D8174A0D12410418050F0402FFDE64
:0C5040001B2116470B8F408000F101007F
:040000050800028568
:00000001FF
