:020000040800F2
:100000000808002091010008DD09000879090008AE
:10001000D9090008AD060008D3150008000000004B
:100020000000000000000000000000002113000894
:10003000E7060008000000002D0D000889140008E4
:10004000AB010008AB010008AB010008AB010008E0
:10005000AB010008AB010008AB010008AB010008D0
:10006000AB010008AB010008AB010008AB010008C0
:10007000AB010008AB010008AB010008AB010008B0
:10008000AB010008AB010008AB010008AB010008A0
:10009000AB010008AB010008AB010008AB01000890
:1000A000AB010008AB010008AB010008AB01000880
:1000B000AB010008AB010008AB010008AB01000870
:1000C000AB010008AB010008AB010008AB01000860
:1000D000AB010008ED140008AB010008AB010008FB
:1000E000E9060008AB010008AB01000800F002F8C7
:1000F00000F03FF80AA090E8000C82448344AAF183
:100100000107DA4501D100F034F8AFF2090EBAE880
:100110000F0013F0010F18BFFB1A43F0010318473B
:10012000EC1E00000C1F0000103A24BF78C878C1F4
:10013000FAD8520724BF30C830C144BF04680C60ED
:10014000704700000023002400250026103A28BF35
:1001500078C1FBD8520728BF30C148BF0B60704739
:10016000642900F07F80002070471FB51FBD10B5C7
:1001700010BD00F02EF91146FFF7F7FF01F0EEFA7F
:1001800000F04CF903B4FFF7F2FF03BC01F06CFA86
:100190000948804709480047FEE7FEE7FEE7FEE71B
:1001A000FEE7FEE7FEE7FEE7FEE7FEE70448054957
:1001B000054A064B704700008D140008ED0000084A
:1001C000080200200808002008040020080400207D
:1001D000704700000FB41CB5074B06AA7B44694664
:1001E0000090059800F0DDF80020694600F0ECF87A
:1001F0001CBC5DF814FB0000E90100002DE9F04192
:100200000E460446002020622046E168884730B34D
:10021000252805D0D4E901219047206A401CF2E747
:10022000E168204600278847050018D0A5F1410065
:10023000192802D820354FF4006732462946204657
:100240002760FFF78DFF40B1012804D0F61D26F08E
:1002500007060836D8E7361DD6E72846DAE7206ACB
:10026000BDE8F0812DE9F0410646002410687529AB
:10027000314616A510D0AFF30080002802DA4042C4
:1002800013A507E031688A0701D512A502E04907E6
:1002900004D511A5012401E0AFF3008000210A225A
:1002A00006F1240709E0B0FBF2FCB0FBF2F302FB1D
:1002B0001C00303078541846491C0028F3D12346DE
:1002C0002A463046BDE8F04100F00CB800000000BE
:1002D0002D0000002B000000200000007047704738
:1002E000704770472DE9F0470D46994692460446FF
:1002F00000F124080168880604D5E06921F01001A6
:10030000216000E00120A84201DD471B00E000273A
:10031000A1697A1902EB0900081AA0612078C006C9
:1003200002D42046AFF30080002608E0D4E9012182
:100330001AF806009047206A401C761C20624E4541
:10034000F4DB2078C0060AD52046AFF3008006E033
:10035000D4E9012130209047206A401C2062381ED9
:10036000A7F10107F4DC07E0D4E9012118F8050042
:100370009047206A401C2062281EA5F10105F3DC8D
:100380002046AFF300802078000602D50220BDE8A9
:10039000F0870120FBE7000001694A1C0261087830
:1003A000704700B58FB0CDE90131002105910549B5
:1003B0007944CDE9031011466846FFF71FFF0FB0DF
:1003C00000BD0000E5FFFFFF0A6802F8010B0A60AC
:1003D0007047754600F02CF8AE4605006946534656
:1003E00020F00700854618B020B5FFF7DFFEBDE816
:1003F00020404FF000064FF000074FF000084FF08C
:10040000000B21F00701AC46ACE8C009ACE8C0091C
:10041000ACE8C009ACE8C0098D46704710B5044689
:10042000AFF300802046BDE81040FFF7ABBE0000F0
:1004300000487047A801002021B1826842F0010203
:10044000826003E0826822F001028260704700004F
:1004500010B504461248844208D10121401500F02D
:1004600077FC0021601500F073FC17E00D48844212
:1004700008D10121001500F06BFC0021201500F0CF
:1004800067FC0BE00848844208D10121C80300F052
:100490005FFC00214FF4004000F05AFC10BD00004A
:1004A0000024014000280140003C0140014600209A
:1004B0008A6802F004020AB1012000E000207047BF
:1004C0000146C86C80B270470246002013680B409A
:1004D0000BB1012000E000207047014600208A682F
:1004E00002F008020AB1012000E00020704700007D
:1004F00030B502460020002350680F4C20400D7993
:100500000C6844EA05242043506090680B4C20405E
:10051000D1E902542C434D7944EA450420439060CC
:10052000D06A20F470000C7C641EE4B2234340EADD
:100530000350D06230BD0000FFFEF0FFFDF7F1FF79
:10054000F0B504460D4600200021092D11DDE068BC
:10055000A5F10A0606EB4607072606FA07F18843C7
:10056000A5F10A0606EB460603FA06F10843E06029
:100570000CE0206905EB4507072606FA07F18843DA
:1005800005EB450603FA06F108432061072A0FDA56
:10059000606B561E06EB86071F2606FA07F1884396
:1005A000561E06EB860605FA06F10843606322E054
:1005B0000D2A0FDA206BD61F06EB86071F2606FAD8
:1005C00007F18843D61F06EB860605FA06F10843B5
:1005D000206310E0E06AA2F10D0606EB86071F26F5
:1005E00006FA07F18843A2F10D0606EB860605FA26
:1005F00006F10843E062F0BD816841F008018160C6
:10060000704721B1826842F4A002826003E08268F0
:1006100022F4A00282607047816841F00401816089
:100620007047000000B587B001214FF4017000F061
:100630007FFB00208DF81B006020ADF81800032020
:100640008DF81A0006A9174800F0E2F81648FFF7DF
:10065000FFFE00208DF8090004904FF46020039005
:100660000020019001208DF8140000208DF8080072
:1006700001A90D48FFF73CFF01210B48FFF7DCFE05
:100680000948FFF7B9FF00BF0748FFF726FF00281A
:10069000FAD10548FFF7C0FF0348FFF707FF07B08F
:1006A00000BD0000000801400024014000BFFEE73B
:1006B00030B5002314E001F0800400F4004584EA22
:1006C00025242CB14FF6FF7404EA4000504003E0AB
:1006D0004FF6FF7404EA40004C06210E5C1CE3B2A6
:1006E000082BE8DB30BD704710B54FF4004000F038
:1006F00011F828B1012003490870C00300F004F884
:1007000010BD000032000020014908607047000061
:1007100014040140014600200022074B1B6803EA35
:100720000102054B14331B680B4013B10AB10120C1
:1007300000E0002070470000000401400021234930
:100740008279002A3AD00A46126803689A430B4617
:100750001A600A1D126803689A430B1D1A60027919
:1007600011440A6803681A430A60184A083212687A
:1007700003689A43154B08331A601A1D1268036800
:100780009A43124B0C331A604279102A0ED11A1F69
:10079000126803681A430D4B08331A601A1D126859
:1007A00003681A43094B0C331A600DE0074942797C
:1007B00011440A6803681A430A6005E0027911448B
:1007C0000A6803689A430A60704700000004014009
:1007D00030B500228B071C0F0F2303FA04F20B4BDA
:1007E0008C1053F824309343084C8D1044F8253076
:1007F00023468C1053F824308C07240F00FA04F49D
:100800002343024C8D1044F8253030BD08000140D0
:100810002DE9F04102460025002600200023002497
:10082000002791F803C00CF00F0591F803C00CF0FD
:10083000100CBCF1000F03D091F802C04CEA050582
:1008400091F800C0BCF1000F31D0146800202BE0FB
:100850004FF0010C0CFA00F3B1F800C00CEA0306EB
:100860009E4220D183004FF00F0C0CFA03F7BC43DB
:1008700005FA03FC4CEA040491F803C0BCF1280F0C
:1008800006D14FF0010C0CFA00FCC2F814C00AE0CB
:1008900091F803C0BCF1480F05D14FF0010C0CFAE0
:1008A00000FCC2F810C0401C0828D1D31460B1F875
:1008B00000C0BCF1FF0F34DD546800202EE000F1D1
:1008C000080C4FF0010808FA0CF3B1F800C00CEA6C
:1008D00003069E4221D183004FF00F0C0CFA03F760
:1008E000BC4305FA03FC4CEA040491F803C0BCF1D4
:1008F000280F05D100F1080C08FA0CF8C2F8148092
:1009000091F803C0BCF1480F07D100F1080C4FF07B
:10091000010808FA0CF8C2F81080401C0828CED351
:100920005460BDE8F0810246002093680B400BB193
:10093000012000E00020704741617047016170476D
:100940000AB1016100E041617047000010B5062066
:1009500000F0D6FE052190FBF1F005490880052046
:1009600000F0CEFE052190FBF1F00249088010BD99
:10097000020000200400002000BFFEE708B50121AE
:100980001C2000F0D5F94FF44270ADF800001020A3
:100990008DF8030003208DF8020069460848FFF730
:1009A00037FF4FF40050ADF8000010208DF8030021
:1009B00003208DF8020069460248FFF729FF08BDB1
:1009C000000C01400010014010B500F051FEFFF78F
:1009D000D5FFFFF727FE10BD00BFFEE77047000000
:1009E00070B5002100230F22C47804B3154C24688D
:1009F00004F4E064C4F5E064210AC1F10403CA40D0
:100A0000447804FA03F184781440214309010E4C20
:100A10000678A155047804F01F050124AC40057840
:100A20006D11AD0005F1E025C5F8004109E004783D
:100A300004F01F050124AC40044D0678761145F8FA
:100A4000264070BD0CED00E000E400E080E100E035
:100A500070B5002418E004F1B000002100F0D3F8D4
:100A60000021084600F0CFF80021102000F0CBF85C
:100A7000002505E00121002000F0C5F8681CC5B282
:100A8000802DF7DB601CC4B2082CE4DB70BD0000D5
:100A900010B54FF480410948FFF750FF4FF4004173
:100AA0000648FFF74BFF4FF400410448FFF744FFAF
:100AB0004FF480410148FFF73FFF10BD000C01409B
:100AC00010B54FF480410748FFF738FF4FF400415D
:100AD0000448FFF731FF4FF400410248FFF72EFFB3
:100AE00010BD0000000C014010B54FF480410448D7
:100AF000FFF724FF4FF480410148FFF71DFF10BDB1
:100B0000000C014070B504460D4605F1B00000210F
:100B100000F079F8102141EA1410002100F073F878
:100B200004F00F00002100F06EF870BD2DE9F047D1
:100B300007460E469046994600250024A8F120005D
:100B4000C5B27F2F02DD0027B01CC6B2B9F1100F6D
:100B500024D131463846FFF7D5FF002408E004EBE6
:100B60000511194A505C012100F04DF8601CC4B217
:100B7000082CF4DB701CC1B23846FFF7C3FF002419
:100B800009E004EB051108310F4A505C012100F027
:100B90003AF8601CC4B2082CF3DB12E03146384648
:100BA000FFF7B0FF00240AE005EB4501074A02EB1E
:100BB0004101085D012100F026F8601CC4B2062C3A
:100BC000F2DBBDE8F08700000C1A0008E41700080B
:100BD0002DE9F04105460E4614461F460EE02278E8
:100BE0003B4631462846FFF7A1FF05F10800C5B294
:100BF000782D02DD0025B01CC6B2641C20780028C8
:100C0000EDD1BDE8F08170B504460D461DB1E0B2EE
:100C100000F04AF802E0E0B200F030F870BD0000E9
:100C20002DE9F04105462C464FF480411248FFF76C
:100C300083FE00261CE0274607F08007802F04D1A2
:100C400039020D48FFF77AFE04E04FF400410A48EC
:100C5000FFF772FE6006040E4FF480410648FFF76E
:100C60006DFE4FF480410448FFF766FE701CC6B26B
:100C7000082EE0DBBDE8F081000C014010B5044611
:100C8000FFF706FF7820FFF7CBFFFFF72DFF0020CF
:100C9000FFF7C6FFFFF728FF2046FFF7C1FFFFF76A
:100CA00023FFFFF70DFF10BD10B50446FFF7F0FE60
:100CB0007820FFF7B5FFFFF717FF4020FFF7B0FFE1
:100CC000FFF712FF2046FFF7ABFFFFF70DFFFFF71F
:100CD000F7FE10BD10B54FF480611348FFF72EFEEC
:100CE000002400E0641C0A2CFCD34FF480610E4801
:100CF000FFF722FE002400E0641C0A2CFCD34FF412
:100D000080610948FFF71AFE002400E0641CC82C2B
:100D1000FCD3302000F08CFB002400E0641CB4F510
:100D2000FA6FFBD310BD0000000C014070470000BB
:100D300029B1064A92690243044B9A6104E0034ACE
:100D400092698243014B9A61704700000010024093
:100D500029B1064AD2680243044BDA6004E0034A30
:100D6000D2688243014BDA607047000000100240F5
:100D70000EB501210846FFF7DBFF28208DF80000A3
:100D800000208DF801008DF8020001208DF803008D
:100D90006846FFF725FE0F210020FFF719FD4FF4ED
:100DA0000040019000208DF808000C208DF809000B
:100DB00001208DF80A0001A8FFF7C0FC0EBD2DE947
:100DC000F04306460F4614460025A846A946012CC6
:100DD00002D148F2050001E041F221008146012CD8
:100DE00002D14FF6FF7001E041F60F50804600251A
:100DF00007E0715D4A464046FFF75AFC8046681C92
:100E0000C5B2BD42F5DB012C02D14046BDE8F083FE
:100E10006FEA080080B2F9E710B500F0C3F9362098
:100E200000F006FB10BD00002DE9F04100275F48EF
:100E30000078072829D2DFE800F0042935525BB199
:100E4000430000F0F1F95A4804885A480588002008
:100E50005949087059490C70200A48708D70280A49
:100E6000C870012204215548FFF7A9FF0646301239
:100E7000524908714E7108460078401CC1B24F4873
:100E800000F04FFA0120494908708BE000BF4A4842
:100E900000780028FBD00020474908700220434911
:100EA00008707FE0002046490860642000F002FCE2
:100EB00001204449C1F8B40106203C49087071E0A2
:100EC00000F0CCF9392000F0B3FA362000F0B0FA87
:100ED0000A2000F0EFFB00203449087062E000F0C7
:100EE00087F9342000F0A4FA04203049087059E052
:100EF00031480078002850D000202F490870412147
:100F0000314800F0D7F8002844D0342000F090FA9F
:100F10002D4800782C49497840EA01242A488078F5
:100F20002949C97840EA01252748407926490979A5
:100F300040EA012025490880012204212248FFF7C8
:100F40003EFF22490988884224D1642000F0B2FB88
:100F500000201B490860642000F0ACFB0120194907
:100F6000C1F8B401FFF774FD224619A11B48FFF731
:100F700031F90C23194A01210820FFF729FE2A46DE
:100F800017A11648FFF726F90C23144A022108205E
:100F9000FFF71EFE05200549087003E00320034902
:100FA000087000BF00BFBDE8F08100000100002014
:100FB0000200002004000020320000204000002039
:100FC000B401224200002242800000200A000020DA
:100FD0004D5F34202020203A25640000C00000200E
:100FE0004D5F36202020203A256400002DE9F04195
:100FF00005460E4617464FF480610F48FFF79CFCEC
:10100000002401E0601CC4B2642CFBDB45F0C00589
:10101000284600F05DF9002404E000F03BF930556B
:10102000601CC4B2BC42F8DB4FF480610248FFF799
:1010300085FCBDE8F0810000000C014070B504465D
:101040004FF480610B48FFF777FC002501E0681C36
:10105000C5B2642DFBDB44F08004204600F038F973
:1010600000F018F906464FF480610248FFF766FC6D
:10107000304670BD000C014070B504464FF48061ED
:101080000B48FFF759FC002501E0681CC5B2642D30
:10109000FBDB44F0C004204600F01AF900F0FAF837
:1010A00006464FF480610248FFF748FC304670BDA9
:1010B000000C0140F8B505460E46362000F0B8F9A0
:1010C0003B20FFF7D9FF044604F07F0000B33F2028
:1010D000FFF7B4FF0446B44215DA2C702246691CAF
:1010E0003F20FFF783FF022269463F20FFF77EFF84
:1010F0009DF80000094908703A2000F099F99DF820
:101100000100C009F8BD3A2000F092F90020F9E78B
:101110003A2000F08DF90020F4E700003C000020A8
:1011200008B501210C20FFF703FE4FF4E050ADF8A5
:10113000000010208DF8030003208DF8020069469E
:101140001648FFF765FB4FF40760ADF8000010206C
:101150008DF8030003208DF8020069460F48FFF761
:1011600057FB4FF40050ADF8000048208DF8030005
:1011700069460A48FFF74CFB4FF400510748FFF758
:10118000DDFB4FF40040ADF8000048208DF803006F
:1011900069460348FFF73CFB08BD0000000C014016
:1011A0000008014010B5FFF795FD00F0C3FA3620A6
:1011B00000F03EF93A2000F03BF93B2000F038F90E
:1011C000332000F035F9082207493E2000F004FAE8
:1011D00006490878FFF732FF04494978884201D070
:1011E00000BFFEE710BD000033000020C817000854
:1011F00010B5012240210A48FFF7A2FB012220215D
:101200000748FFF79DFB00224FF400610548FFF7F8
:1012100097FB002210210248FFF792FB10BD00004F
:10122000000C01400008014010B50022402109488F
:10123000FFF786FB012220210648FFF781FB0122F0
:10124000D1020548FFF77CFB002210210148FFF77F
:1012500077FB10BD000C01400008014010B50022D2
:1012600040210A48FFF76CFB002220210748FFF7C6
:1012700067FB00224FF400610548FFF761FB012284
:1012800010210248FFF75CFB10BD0000000C01407C
:101290000008014070B5002513E04FF480510B4861
:1012A000FFF74CFB6006040E4FF400510748FFF7B0
:1012B0003AFB04434FF480510448FFF73DFB681CA0
:1012C000C5B2082DE9DB204670BD0000000C0140CE
:1012D00070B5044600251CE004F0800028B14FF4EE
:1012E00000610E48FFF72AFB04E04FF400610B4851
:1012F000FFF722FB00BF4FF480510848FFF71EFBA9
:101300006006040E4FF480510448FFF715FB681C7B
:10131000C5B2082DE0DB012070BD0000000C0140CB
:10132000704770B504460D46362000F081F83B202A
:1013300000F07EF82A4621463F2000F04DF9352086
:1013400000F076F8012070BD10B500F001F810BD76
:101350000CB50020019000903348006840F48030C4
:101360003149086000BF3048006800F40030009048
:101370000198401C0190009818B90198B0F5A06F31
:10138000F1D12948006800F4003010B1012000902C
:1013900001E0002000900098012843D12348006814
:1013A00040F01000214908600846006820F0030062
:1013B00008600846006840F0020008601A4840686B
:1013C000194948600846406848600846406840F44B
:1013D000806048600846406820F47C1048600846F9
:1013E000406840F4E81048600846006840F08070AB
:1013F000086000BF0C48006800F000700028F9D0B9
:101400000948406820F003000749486008464068E2
:1014100040F00200486000BF0348406800F00C0044
:101420000828F9D10CBD0000001002400020024045
:1014300070B505464FF480610848FFF77DFA002437
:1014400001E0601CC4B2642CFBDB2846FFF740FFC0
:101450004FF480610148FFF771FA70BD000C014044
:10146000042808D14FF0E021096941F004014FF050
:10147000E022116107E04FF0E021096921F0040149
:101480004FF0E022116170477047000010B513481B
:10149000006840F0010011490860084640681049A2
:1014A00008400E494860084600680E4908400B494C
:1014B00008600846006820F48020086008464068FC
:1014C00020F4FE0048604FF41F008860FFF73CFFE7
:1014D0004FF000600449086010BD00000010024099
:1014E0000000FFF8FFFFF6FE08ED00E010B540F247
:1014F00025511D4800F03EF810B31B4800F064F879
:10150000C4B21A48008800F40040C8B917480088DF
:1015100000F4804060B10A2C03D0002013490880F9
:1015200020E01248008840F400401049088019E08B
:101530000D2C06D10D48008840F480400B490880EE
:1015400010E00A480088C0F30D0009490C54074810
:101550000088401C0549088008460088C72801DD2E
:101560000020088010BD000000380140300000203D
:10157000DE00002070B50246002400230025002074
:1015800040F66A16B14200D100BFC1F3421501F026
:101590001F03012606FA03F3012D02D19689334079
:1015A00006E0022D02D1168A334001E0968A3340CC
:1015B0000C12012606FA04F41688344013B10CB15B
:1015C000012000E0002070BD01468888C0F30800BB
:1015D000704700BFFEE700002DE9F04105460E46CA
:1015E00017464FF480611048FFF7A6F9002401E088
:1015F000601CC4B2642CFBDB25F0800545F040057F
:101600002846FFF765FE002404E0305DFFF760FE2A
:10161000601CC4B2BC42F8DB4FF480610248FFF7A3
:101620008DF9BDE8F0810000000C014070B5044662
:101630000D464FF480610B48FFF77EF9002601E06C
:10164000701CC6B2642EFBDB24F080042046FFF73A
:101650003FFE2846FFF73CFE4FF480610148FFF74C
:101660006DF970BD000C0140014600BF70470000DD
:1016700010B56FF00400FFF7F3FE0A4800680A494E
:10168000B0FBF1F0094908700846007800EB400112
:10169000C1EBC0104FF6FF7101EAC0000449088099
:1016A00010BD00001400002000127A002800002065
:1016B0002A0000200146114A12884A434FF0E023D5
:1016C0005A6100229A611A46126942F001021A61B7
:1016D00000BF4FF0E022106900F001021AB100F4DF
:1016E0008032002AF5D04FF0E022126922F0010288
:1016F0004FF0E0231A6100229A6170472A0000200F
:1017000010B504460723012221460948FEF718FFB9
:1017100001210748FEF775FF00BF02210448FEF7CC
:10172000D3FE0028F9D00248FEF7CAFE10BD000023
:101730000024014010B500240AE0074A02EB4402ED
:101740005178054A12F81400FFF770FF601C84B24C
:101750000E2CF2D310BD0000C8170008FFF734F9B3
:10176000FFF7DEFCFFF704FBFFF756FB01201149F2
:1017700008601149C1F8B4014FF49670FFF79AFF61
:1017800000200E49C1F88C010D480078012803D1D2
:1017900000200C49087002E003200A49087007E0A5
:1017A000FFF7D4F84FF47A70FFF784FFFFF73CFBA4
:1017B000F6E700008C812142000022420080214295
:1017C0000000002001000020020608050B080D5D46
:1017D0000E930FB1108611831203154418181916B1
:1017E000250026110000000000000000002F00006E
:1017F00000000700070000147F147F1400242A7FD4
:101800002A12006264081323003649552250000052
:101810000503000000001C224100000041221C00C2
:101820000014083E08140008083E0808000000A044
:101830006000000808080808000060600000002040
:1018400010080402003E5149453E0000427F40001E
:10185000004261514946002141454B3100181412A4
:101860007F10002745454539003C4A494930000171
:101870007109050300364949493600064949291EC0
:101880000000363600000000563600000008142222
:101890004100001414141414000041221408000222
:1018A0000151090600324959513E007C1211127C47
:1018B000007F49494936003E41414122007F414174
:1018C000221C007F49494941007F09090901003E66
:1018D0004149497A007F0808087F0000417F4100A4
:1018E000002040413F01007F08142241007F40401A
:1018F0004040007F020C027F007F0408107F003E02
:101900004141413E007F09090906003E4151215EE7
:10191000007F091929460046494949310001017FE4
:101920000101003F4040403F001F2040201F003F7A
:101930004038403F0063140814630007087008072C
:1019400000615149454300007F41410000552A553F
:101950002A55000041417F000004020102040040BA
:1019600040404040000001020400002054545478DC
:10197000007F4844443800384444442000384444FC
:10198000487F00385454541800087E09010200189A
:10199000A4A4A47C007F080404780000447D4000D7
:1019A000004080847D00007F102844000000417FBB
:1019B0004000007C04180478007C08040478003897
:1019C0004444443800FC242424180018242418FC1F
:1019D000007C0804040800485454542000043F4488
:1019E0004020003C4040207C001C2040201C003C4B
:1019F0004030403C004428102844001CA0A0A07C9B
:101A0000004464544C4414141414141400000000D2
:101A1000000000000000000000000000000000F8CE
:101A200000000000000000333000000000100C0631
:101A3000100C0600000000000000000040C07840CC
:101A4000C0784000043F04043F040400007088FC98
:101A500008300000001820FF211E0000F008F000F0
:101A6000E018000000211C031E211E0000F0088861
:101A7000700000001E2123241927211010160E00CB
:101A8000000000000000000000000000000000E076
:101A9000180402000000000718204000000204188B
:101AA000E00000000040201807000000404080F0E7
:101AB000804040000202010F01020200000000F01D
:101AC000000000000101011F0101010000000000F1
:101AD0000000000080B07000000000000000000066
:101AE00000000000000101010101010100000000EF
:101AF0000000000000303000000000000000000086
:101B000080601804006018060100000000E0100862
:101B10000810E000000F102020100F00001010F837
:101B2000000000000020203F202000000070080876
:101B300008887000003028242221300000300888F6
:101B4000884830000018202020110E000000C0201E
:101B500010F8000000070424243F240000F808883F
:101B6000880808000019212020110E0000E01088CC
:101B700088180000000F112020110E0000380808FE
:101B8000C83808000000003F00000000007088080E
:101B900008887000001C222121221C0000E010088F
:101BA0000810E0000000312222110F00000000C0E8
:101BB000C000000000000030300000000000008085
:101BC0000000000000008060000000000000804075
:101BD000201008000001020408102000404040408E
:101BE00040404000040404040404040000081020E1
:101BF0004080000000201008040201000070480826
:101C00000808F0000000003036010000C030C8288D
:101C1000E810E0000718272423140B000000C03848
:101C2000E0000000203C23020227382008F88888C2
:101C300088700000203F202020110E00C0300808CE
:101C400008083800071820202010080008F80808A5
:101C50000810E000203F202020100F0008F888889E
:101C6000E8081000203F20202320180008F888886A
:101C7000E8081000203F200003000000C0300808E2
:101C80000838000007182020221E020008F808006B
:101C90000008F808203F210101213F20000808F832
:101CA000080800000020203F202000000000080855
:101CB000F8080800C08080807F00000008F888C015
:101CC00028180800203F20012638200008F80800C6
:101CD00000000000203F20202020300008F8F800FD
:101CE000F8F80800203F003F003F200008F830C00F
:101CF0000008F808203F200007183F00E0100808FF
:101D00000810E0000F10202020100F0008F808082D
:101D10000808F000203F210101010000E010080840
:101D20000810E0000F18242438504F0008F8888865
:101D300088887000203F2000030C30200070880845
:101D4000080838000038202121221C00180808F853
:101D5000080818000000203F2000000008F80800D4
:101D60000008F808001F202020201F0008788800A5
:101D700000C83808000007380E010000F80800F815
:101D80000008F800033C0700073C030008186880BF
:101D90008068180820302C03032C30200838C80035
:101DA000C83808000000203F200000001008080884
:101DB000C83808002038262120201800000000FE26
:101DC000020202000000007F40404000000C30C0D2
:101DD00000000000000000010638C00000020202FE
:101DE000FE000000004040407F00000000000402B0
:101DF00002020400000000000000000000000000DB
:101E000000000000808080808080808000020204CA
:101E100000000000000000000000000000008080C2
:101E2000808000000019242222223F2008F8008030
:101E300080000000003F112020110E0000000080F3
:101E400080800000000E1120202011000000008082
:101E50008088F800000E112020103F2000008080B4
:101E600080800000001F222222221300008080F0C8
:101E7000888888180020203F2020000000008080F3
:101E800080808000006B94949493600008F8008038
:101E900080800000203F210000203F200080989893
:101EA000000000000020203F2020000000000080F3
:101EB0009898000000C08080807F000008F8000033
:101EC00080808000203F24022D302000000808F888
:101ED000000000000020203F202000008080808043
:101EE00080808000203F20003F20003F80800080D5
:101EF00080800000203F210000203F2000008080E3
:101F000080800000001F202020201F008080008093
:101F10008000000080FFA12020110E000000008042
:101F200080808000000E112020A0FF808080800033
:101F30008080800020203F21200001000000808060
:101F4000808080000033242424241900008080E055
:101F5000808000000000001F202000008080000022
:101F600000808000001F202020103F208080800003
:101F70000080808000010E30080601008080008013
:101F8000008080800F300C030C300F000080800038
:101F9000808080000020312E0E3120008080800063
:101FA0000080808080818E70180601000080808013
:101FB000808080000021302C2221300000000000B1
:101FC000807C020200000000003F40400000000052
:101FD000FF00000000000000FF0000000002027C83
:101FE000800000000040403F0000000000060101AA
:101FF000020204040000000000000000000810209D
:102000004080000000201008040201002C2000087D
:102010000000002040000000280100086C2000089B
:1020200040000020C8070000440100080100000033
:1020300000000000000000000000000000000000A0
:1020400000A24A0400000000000000000102030496
:10205000060708090000000000000000000000FF63
:0C20600000000000000000000000000074
:04000005080001915D
:00000001FF
